{
	"contracts/SimpleStorage.sol": {
		"SimpleStorage": {
			"abi": [
				{
					"inputs": [
						{
							"internalType": "uint256",
							"name": "_favoriteNumber",
							"type": "uint256"
						},
						{
							"internalType": "string",
							"name": "_name",
							"type": "string"
						}
					],
					"name": "insertIntoArr",
					"outputs": [],
					"stateMutability": "nonpayable",
					"type": "function"
				},
				{
					"inputs": [
						{
							"internalType": "string",
							"name": "",
							"type": "string"
						}
					],
					"name": "nameToFavoriteNumber",
					"outputs": [
						{
							"internalType": "uint256",
							"name": "",
							"type": "uint256"
						}
					],
					"stateMutability": "view",
					"type": "function"
				},
				{
					"inputs": [
						{
							"internalType": "uint256",
							"name": "",
							"type": "uint256"
						}
					],
					"name": "people",
					"outputs": [
						{
							"internalType": "uint256",
							"name": "favoriteNumber",
							"type": "uint256"
						},
						{
							"internalType": "string",
							"name": "name",
							"type": "string"
						}
					],
					"stateMutability": "view",
					"type": "function"
				},
				{
					"inputs": [],
					"name": "retrieve",
					"outputs": [
						{
							"internalType": "uint256",
							"name": "",
							"type": "uint256"
						}
					],
					"stateMutability": "view",
					"type": "function"
				},
				{
					"inputs": [
						{
							"internalType": "uint256",
							"name": "numberToStore",
							"type": "uint256"
						}
					],
					"name": "store",
					"outputs": [],
					"stateMutability": "nonpayable",
					"type": "function"
				}
			],
			"devdoc": {
				"kind": "dev",
				"methods": {},
				"version": 1
			},
			"evm": {
				"assembly": "    /* \"contracts/SimpleStorage.sol\":56:790  contract SimpleStorage {... */\n  mstore(0x40, 0x80)\n  callvalue\n  dup1\n  iszero\n  tag_1\n  jumpi\n  0x00\n  dup1\n  revert\ntag_1:\n  pop\n  dataSize(sub_0)\n  dup1\n  dataOffset(sub_0)\n  0x00\n  codecopy\n  0x00\n  return\nstop\n\nsub_0: assembly {\n        /* \"contracts/SimpleStorage.sol\":56:790  contract SimpleStorage {... */\n      mstore(0x40, 0x80)\n      callvalue\n      dup1\n      iszero\n      tag_1\n      jumpi\n      0x00\n      dup1\n      revert\n    tag_1:\n      pop\n      jumpi(tag_2, lt(calldatasize, 0x04))\n      shr(0xe0, calldataload(0x00))\n      dup1\n      0x2e64cec1\n      eq\n      tag_3\n      jumpi\n      dup1\n      0x6057361d\n      eq\n      tag_4\n      jumpi\n      dup1\n      0x8bab8dd5\n      eq\n      tag_5\n      jumpi\n      dup1\n      0x9e7a13ad\n      eq\n      tag_6\n      jumpi\n      dup1\n      0xc7c78f35\n      eq\n      tag_7\n      jumpi\n    tag_2:\n      0x00\n      dup1\n      revert\n        /* \"contracts/SimpleStorage.sol\":429:516  function retrieve() public view returns(uint256) {... */\n    tag_3:\n      tag_8\n      tag_9\n      jump\t// in\n    tag_8:\n      mload(0x40)\n      tag_10\n      swap2\n      swap1\n      tag_11\n      jump\t// in\n    tag_10:\n      mload(0x40)\n      dup1\n      swap2\n      sub\n      swap1\n      return\n        /* \"contracts/SimpleStorage.sol\":332:423  function store(uint256 numberToStore) public{... */\n    tag_4:\n      tag_12\n      0x04\n      dup1\n      calldatasize\n      sub\n      dup2\n      add\n      swap1\n      tag_13\n      swap2\n      swap1\n      tag_14\n      jump\t// in\n    tag_13:\n      tag_15\n      jump\t// in\n    tag_12:\n      stop\n        /* \"contracts/SimpleStorage.sol\":146:200  mapping(string => uint256) public nameToFavoriteNumber */\n    tag_5:\n      tag_16\n      0x04\n      dup1\n      calldatasize\n      sub\n      dup2\n      add\n      swap1\n      tag_17\n      swap2\n      swap1\n      tag_18\n      jump\t// in\n    tag_17:\n      tag_19\n      jump\t// in\n    tag_16:\n      mload(0x40)\n      tag_20\n      swap2\n      swap1\n      tag_11\n      jump\t// in\n    tag_20:\n      mload(0x40)\n      dup1\n      swap2\n      sub\n      swap1\n      return\n        /* \"contracts/SimpleStorage.sol\":284:306  People[] public people */\n    tag_6:\n      tag_21\n      0x04\n      dup1\n      calldatasize\n      sub\n      dup2\n      add\n      swap1\n      tag_22\n      swap2\n      swap1\n      tag_14\n      jump\t// in\n    tag_22:\n      tag_23\n      jump\t// in\n    tag_21:\n      mload(0x40)\n      tag_24\n      swap3\n      swap2\n      swap1\n      tag_25\n      jump\t// in\n    tag_24:\n      mload(0x40)\n      dup1\n      swap2\n      sub\n      swap1\n      return\n        /* \"contracts/SimpleStorage.sol\":522:782  function insertIntoArr(uint256 _favoriteNumber, string memory _name) public {... */\n    tag_7:\n      tag_26\n      0x04\n      dup1\n      calldatasize\n      sub\n      dup2\n      add\n      swap1\n      tag_27\n      swap2\n      swap1\n      tag_28\n      jump\t// in\n    tag_27:\n      tag_29\n      jump\t// in\n    tag_26:\n      stop\n        /* \"contracts/SimpleStorage.sol\":429:516  function retrieve() public view returns(uint256) {... */\n    tag_9:\n        /* \"contracts/SimpleStorage.sol\":469:476  uint256 */\n      0x00\n        /* \"contracts/SimpleStorage.sol\":495:509  favoriteNumber */\n      dup1\n      sload\n        /* \"contracts/SimpleStorage.sol\":488:509  return favoriteNumber */\n      swap1\n      pop\n        /* \"contracts/SimpleStorage.sol\":429:516  function retrieve() public view returns(uint256) {... */\n      swap1\n      jump\t// out\n        /* \"contracts/SimpleStorage.sol\":332:423  function store(uint256 numberToStore) public{... */\n    tag_15:\n        /* \"contracts/SimpleStorage.sol\":403:416  numberToStore */\n      dup1\n        /* \"contracts/SimpleStorage.sol\":386:400  favoriteNumber */\n      0x00\n        /* \"contracts/SimpleStorage.sol\":386:416  favoriteNumber = numberToStore */\n      dup2\n      swap1\n      sstore\n      pop\n        /* \"contracts/SimpleStorage.sol\":332:423  function store(uint256 numberToStore) public{... */\n      pop\n      jump\t// out\n        /* \"contracts/SimpleStorage.sol\":146:200  mapping(string => uint256) public nameToFavoriteNumber */\n    tag_19:\n      0x01\n      dup2\n      dup1\n      mload\n      0x20\n      dup2\n      add\n      dup3\n      add\n      dup1\n      mload\n      dup5\n      dup3\n      mstore\n      0x20\n      dup4\n      add\n      0x20\n      dup6\n      add\n      keccak256\n      dup2\n      dup4\n      mstore\n      dup1\n      swap6\n      pop\n      pop\n      pop\n      pop\n      pop\n      pop\n      0x00\n      swap2\n      pop\n      swap1\n      pop\n      sload\n      dup2\n      jump\t// out\n        /* \"contracts/SimpleStorage.sol\":284:306  People[] public people */\n    tag_23:\n      0x02\n      dup2\n      dup2\n      sload\n      dup2\n      lt\n      tag_32\n      jumpi\n      0x00\n      dup1\n      revert\n    tag_32:\n      swap1\n      0x00\n      mstore\n      keccak256(0x00, 0x20)\n      swap1\n      0x02\n      mul\n      add\n      0x00\n      swap2\n      pop\n      swap1\n      pop\n      dup1\n      0x00\n      add\n      sload\n      swap1\n      dup1\n      0x01\n      add\n      dup1\n      sload\n      tag_34\n      swap1\n      tag_35\n      jump\t// in\n    tag_34:\n      dup1\n      0x1f\n      add\n      0x20\n      dup1\n      swap2\n      div\n      mul\n      0x20\n      add\n      mload(0x40)\n      swap1\n      dup2\n      add\n      0x40\n      mstore\n      dup1\n      swap3\n      swap2\n      swap1\n      dup2\n      dup2\n      mstore\n      0x20\n      add\n      dup3\n      dup1\n      sload\n      tag_36\n      swap1\n      tag_35\n      jump\t// in\n    tag_36:\n      dup1\n      iszero\n      tag_37\n      jumpi\n      dup1\n      0x1f\n      lt\n      tag_38\n      jumpi\n      0x0100\n      dup1\n      dup4\n      sload\n      div\n      mul\n      dup4\n      mstore\n      swap2\n      0x20\n      add\n      swap2\n      jump(tag_37)\n    tag_38:\n      dup3\n      add\n      swap2\n      swap1\n      0x00\n      mstore\n      keccak256(0x00, 0x20)\n      swap1\n    tag_39:\n      dup2\n      sload\n      dup2\n      mstore\n      swap1\n      0x01\n      add\n      swap1\n      0x20\n      add\n      dup1\n      dup4\n      gt\n      tag_39\n      jumpi\n      dup3\n      swap1\n      sub\n      0x1f\n      and\n      dup3\n      add\n      swap2\n    tag_37:\n      pop\n      pop\n      pop\n      pop\n      pop\n      swap1\n      pop\n      dup3\n      jump\t// out\n        /* \"contracts/SimpleStorage.sol\":522:782  function insertIntoArr(uint256 _favoriteNumber, string memory _name) public {... */\n    tag_29:\n        /* \"contracts/SimpleStorage.sol\":608:631  People memory newPerson */\n      0x00\n        /* \"contracts/SimpleStorage.sol\":634:688  People({favoriteNumber: _favoriteNumber, name: _name}) */\n      mload(0x40)\n      dup1\n      0x40\n      add\n      0x40\n      mstore\n      dup1\n        /* \"contracts/SimpleStorage.sol\":658:673  _favoriteNumber */\n      dup5\n        /* \"contracts/SimpleStorage.sol\":634:688  People({favoriteNumber: _favoriteNumber, name: _name}) */\n      dup2\n      mstore\n      0x20\n      add\n        /* \"contracts/SimpleStorage.sol\":681:686  _name */\n      dup4\n        /* \"contracts/SimpleStorage.sol\":634:688  People({favoriteNumber: _favoriteNumber, name: _name}) */\n      dup2\n      mstore\n      pop\n        /* \"contracts/SimpleStorage.sol\":608:688  People memory newPerson = People({favoriteNumber: _favoriteNumber, name: _name}) */\n      swap1\n      pop\n        /* \"contracts/SimpleStorage.sol\":698:704  people */\n      0x02\n        /* \"contracts/SimpleStorage.sol\":710:719  newPerson */\n      dup2\n        /* \"contracts/SimpleStorage.sol\":698:720  people.push(newPerson) */\n      swap1\n      dup1\n      0x01\n      dup2\n      sload\n      add\n      dup1\n      dup3\n      sstore\n      dup1\n      swap2\n      pop\n      pop\n      0x01\n      swap1\n      sub\n      swap1\n      0x00\n      mstore\n      keccak256(0x00, 0x20)\n      swap1\n      0x02\n      mul\n      add\n      0x00\n      swap1\n      swap2\n      swap1\n      swap2\n      swap1\n      swap2\n      pop\n      0x00\n      dup3\n      add\n      mload\n      dup2\n      0x00\n      add\n      sstore\n      0x20\n      dup3\n      add\n      mload\n      dup2\n      0x01\n      add\n      swap1\n      dup1\n      mload\n      swap1\n      0x20\n      add\n      swap1\n      tag_42\n      swap3\n      swap2\n      swap1\n      tag_43\n      jump\t// in\n    tag_42:\n      pop\n      pop\n      pop\n        /* \"contracts/SimpleStorage.sol\":760:775  _favoriteNumber */\n      dup3\n        /* \"contracts/SimpleStorage.sol\":730:750  nameToFavoriteNumber */\n      0x01\n        /* \"contracts/SimpleStorage.sol\":751:756  _name */\n      dup4\n        /* \"contracts/SimpleStorage.sol\":730:757  nameToFavoriteNumber[_name] */\n      mload(0x40)\n      tag_44\n      swap2\n      swap1\n      tag_45\n      jump\t// in\n    tag_44:\n      swap1\n      dup2\n      mstore\n      0x20\n      add\n      mload(0x40)\n      dup1\n      swap2\n      sub\n      swap1\n      keccak256\n        /* \"contracts/SimpleStorage.sol\":730:775  nameToFavoriteNumber[_name] = _favoriteNumber */\n      dup2\n      swap1\n      sstore\n      pop\n        /* \"contracts/SimpleStorage.sol\":598:782  {... */\n      pop\n        /* \"contracts/SimpleStorage.sol\":522:782  function insertIntoArr(uint256 _favoriteNumber, string memory _name) public {... */\n      pop\n      pop\n      jump\t// out\n    tag_43:\n      dup3\n      dup1\n      sload\n      tag_46\n      swap1\n      tag_35\n      jump\t// in\n    tag_46:\n      swap1\n      0x00\n      mstore\n      keccak256(0x00, 0x20)\n      swap1\n      0x1f\n      add\n      0x20\n      swap1\n      div\n      dup2\n      add\n      swap3\n      dup3\n      tag_48\n      jumpi\n      0x00\n      dup6\n      sstore\n      jump(tag_47)\n    tag_48:\n      dup3\n      0x1f\n      lt\n      tag_49\n      jumpi\n      dup1\n      mload\n      not(0xff)\n      and\n      dup4\n      dup1\n      add\n      or\n      dup6\n      sstore\n      jump(tag_47)\n    tag_49:\n      dup3\n      dup1\n      add\n      0x01\n      add\n      dup6\n      sstore\n      dup3\n      iszero\n      tag_47\n      jumpi\n      swap2\n      dup3\n      add\n    tag_50:\n      dup3\n      dup2\n      gt\n      iszero\n      tag_51\n      jumpi\n      dup3\n      mload\n      dup3\n      sstore\n      swap2\n      0x20\n      add\n      swap2\n      swap1\n      0x01\n      add\n      swap1\n      jump(tag_50)\n    tag_51:\n    tag_47:\n      pop\n      swap1\n      pop\n      tag_52\n      swap2\n      swap1\n      tag_53\n      jump\t// in\n    tag_52:\n      pop\n      swap1\n      jump\t// out\n    tag_53:\n    tag_54:\n      dup1\n      dup3\n      gt\n      iszero\n      tag_55\n      jumpi\n      0x00\n      dup2\n      0x00\n      swap1\n      sstore\n      pop\n      0x01\n      add\n      jump(tag_54)\n    tag_55:\n      pop\n      swap1\n      jump\t// out\n        /* \"#utility.yul\":7:84   */\n    tag_56:\n        /* \"#utility.yul\":44:51   */\n      0x00\n        /* \"#utility.yul\":73:78   */\n      dup2\n        /* \"#utility.yul\":62:78   */\n      swap1\n      pop\n        /* \"#utility.yul\":7:84   */\n      swap2\n      swap1\n      pop\n      jump\t// out\n        /* \"#utility.yul\":90:208   */\n    tag_57:\n        /* \"#utility.yul\":177:201   */\n      tag_83\n        /* \"#utility.yul\":195:200   */\n      dup2\n        /* \"#utility.yul\":177:201   */\n      tag_56\n      jump\t// in\n    tag_83:\n        /* \"#utility.yul\":172:175   */\n      dup3\n        /* \"#utility.yul\":165:202   */\n      mstore\n        /* \"#utility.yul\":90:208   */\n      pop\n      pop\n      jump\t// out\n        /* \"#utility.yul\":214:436   */\n    tag_11:\n        /* \"#utility.yul\":307:311   */\n      0x00\n        /* \"#utility.yul\":345:347   */\n      0x20\n        /* \"#utility.yul\":334:343   */\n      dup3\n        /* \"#utility.yul\":330:348   */\n      add\n        /* \"#utility.yul\":322:348   */\n      swap1\n      pop\n        /* \"#utility.yul\":358:429   */\n      tag_85\n        /* \"#utility.yul\":426:427   */\n      0x00\n        /* \"#utility.yul\":415:424   */\n      dup4\n        /* \"#utility.yul\":411:428   */\n      add\n        /* \"#utility.yul\":402:408   */\n      dup5\n        /* \"#utility.yul\":358:429   */\n      tag_57\n      jump\t// in\n    tag_85:\n        /* \"#utility.yul\":214:436   */\n      swap3\n      swap2\n      pop\n      pop\n      jump\t// out\n        /* \"#utility.yul\":442:517   */\n    tag_58:\n        /* \"#utility.yul\":475:481   */\n      0x00\n        /* \"#utility.yul\":508:510   */\n      0x40\n        /* \"#utility.yul\":502:511   */\n      mload\n        /* \"#utility.yul\":492:511   */\n      swap1\n      pop\n        /* \"#utility.yul\":442:517   */\n      swap1\n      jump\t// out\n        /* \"#utility.yul\":523:640   */\n    tag_59:\n        /* \"#utility.yul\":632:633   */\n      0x00\n        /* \"#utility.yul\":629:630   */\n      dup1\n        /* \"#utility.yul\":622:634   */\n      revert\n        /* \"#utility.yul\":646:763   */\n    tag_60:\n        /* \"#utility.yul\":755:756   */\n      0x00\n        /* \"#utility.yul\":752:753   */\n      dup1\n        /* \"#utility.yul\":745:757   */\n      revert\n        /* \"#utility.yul\":769:891   */\n    tag_61:\n        /* \"#utility.yul\":842:866   */\n      tag_90\n        /* \"#utility.yul\":860:865   */\n      dup2\n        /* \"#utility.yul\":842:866   */\n      tag_56\n      jump\t// in\n    tag_90:\n        /* \"#utility.yul\":835:840   */\n      dup2\n        /* \"#utility.yul\":832:867   */\n      eq\n        /* \"#utility.yul\":822:885   */\n      tag_91\n      jumpi\n        /* \"#utility.yul\":881:882   */\n      0x00\n        /* \"#utility.yul\":878:879   */\n      dup1\n        /* \"#utility.yul\":871:883   */\n      revert\n        /* \"#utility.yul\":822:885   */\n    tag_91:\n        /* \"#utility.yul\":769:891   */\n      pop\n      jump\t// out\n        /* \"#utility.yul\":897:1036   */\n    tag_62:\n        /* \"#utility.yul\":943:948   */\n      0x00\n        /* \"#utility.yul\":981:987   */\n      dup2\n        /* \"#utility.yul\":968:988   */\n      calldataload\n        /* \"#utility.yul\":959:988   */\n      swap1\n      pop\n        /* \"#utility.yul\":997:1030   */\n      tag_93\n        /* \"#utility.yul\":1024:1029   */\n      dup2\n        /* \"#utility.yul\":997:1030   */\n      tag_61\n      jump\t// in\n    tag_93:\n        /* \"#utility.yul\":897:1036   */\n      swap3\n      swap2\n      pop\n      pop\n      jump\t// out\n        /* \"#utility.yul\":1042:1371   */\n    tag_14:\n        /* \"#utility.yul\":1101:1107   */\n      0x00\n        /* \"#utility.yul\":1150:1152   */\n      0x20\n        /* \"#utility.yul\":1138:1147   */\n      dup3\n        /* \"#utility.yul\":1129:1136   */\n      dup5\n        /* \"#utility.yul\":1125:1148   */\n      sub\n        /* \"#utility.yul\":1121:1153   */\n      slt\n        /* \"#utility.yul\":1118:1237   */\n      iszero\n      tag_95\n      jumpi\n        /* \"#utility.yul\":1156:1235   */\n      tag_96\n      tag_59\n      jump\t// in\n    tag_96:\n        /* \"#utility.yul\":1118:1237   */\n    tag_95:\n        /* \"#utility.yul\":1276:1277   */\n      0x00\n        /* \"#utility.yul\":1301:1354   */\n      tag_97\n        /* \"#utility.yul\":1346:1353   */\n      dup5\n        /* \"#utility.yul\":1337:1343   */\n      dup3\n        /* \"#utility.yul\":1326:1335   */\n      dup6\n        /* \"#utility.yul\":1322:1344   */\n      add\n        /* \"#utility.yul\":1301:1354   */\n      tag_62\n      jump\t// in\n    tag_97:\n        /* \"#utility.yul\":1291:1354   */\n      swap2\n      pop\n        /* \"#utility.yul\":1247:1364   */\n      pop\n        /* \"#utility.yul\":1042:1371   */\n      swap3\n      swap2\n      pop\n      pop\n      jump\t// out\n        /* \"#utility.yul\":1377:1494   */\n    tag_63:\n        /* \"#utility.yul\":1486:1487   */\n      0x00\n        /* \"#utility.yul\":1483:1484   */\n      dup1\n        /* \"#utility.yul\":1476:1488   */\n      revert\n        /* \"#utility.yul\":1500:1617   */\n    tag_64:\n        /* \"#utility.yul\":1609:1610   */\n      0x00\n        /* \"#utility.yul\":1606:1607   */\n      dup1\n        /* \"#utility.yul\":1599:1611   */\n      revert\n        /* \"#utility.yul\":1623:1725   */\n    tag_65:\n        /* \"#utility.yul\":1664:1670   */\n      0x00\n        /* \"#utility.yul\":1715:1717   */\n      0x1f\n        /* \"#utility.yul\":1711:1718   */\n      not\n        /* \"#utility.yul\":1706:1708   */\n      0x1f\n        /* \"#utility.yul\":1699:1704   */\n      dup4\n        /* \"#utility.yul\":1695:1709   */\n      add\n        /* \"#utility.yul\":1691:1719   */\n      and\n        /* \"#utility.yul\":1681:1719   */\n      swap1\n      pop\n        /* \"#utility.yul\":1623:1725   */\n      swap2\n      swap1\n      pop\n      jump\t// out\n        /* \"#utility.yul\":1731:1911   */\n    tag_66:\n        /* \"#utility.yul\":1779:1856   */\n      0x4e487b7100000000000000000000000000000000000000000000000000000000\n        /* \"#utility.yul\":1776:1777   */\n      0x00\n        /* \"#utility.yul\":1769:1857   */\n      mstore\n        /* \"#utility.yul\":1876:1880   */\n      0x41\n        /* \"#utility.yul\":1873:1874   */\n      0x04\n        /* \"#utility.yul\":1866:1881   */\n      mstore\n        /* \"#utility.yul\":1900:1904   */\n      0x24\n        /* \"#utility.yul\":1897:1898   */\n      0x00\n        /* \"#utility.yul\":1890:1905   */\n      revert\n        /* \"#utility.yul\":1917:2198   */\n    tag_67:\n        /* \"#utility.yul\":2000:2027   */\n      tag_103\n        /* \"#utility.yul\":2022:2026   */\n      dup3\n        /* \"#utility.yul\":2000:2027   */\n      tag_65\n      jump\t// in\n    tag_103:\n        /* \"#utility.yul\":1992:1998   */\n      dup2\n        /* \"#utility.yul\":1988:2028   */\n      add\n        /* \"#utility.yul\":2130:2136   */\n      dup2\n        /* \"#utility.yul\":2118:2128   */\n      dup2\n        /* \"#utility.yul\":2115:2137   */\n      lt\n        /* \"#utility.yul\":2094:2112   */\n      0xffffffffffffffff\n        /* \"#utility.yul\":2082:2092   */\n      dup3\n        /* \"#utility.yul\":2079:2113   */\n      gt\n        /* \"#utility.yul\":2076:2138   */\n      or\n        /* \"#utility.yul\":2073:2161   */\n      iszero\n      tag_104\n      jumpi\n        /* \"#utility.yul\":2141:2159   */\n      tag_105\n      tag_66\n      jump\t// in\n    tag_105:\n        /* \"#utility.yul\":2073:2161   */\n    tag_104:\n        /* \"#utility.yul\":2181:2191   */\n      dup1\n        /* \"#utility.yul\":2177:2179   */\n      0x40\n        /* \"#utility.yul\":2170:2192   */\n      mstore\n        /* \"#utility.yul\":1960:2198   */\n      pop\n        /* \"#utility.yul\":1917:2198   */\n      pop\n      pop\n      jump\t// out\n        /* \"#utility.yul\":2204:2333   */\n    tag_68:\n        /* \"#utility.yul\":2238:2244   */\n      0x00\n        /* \"#utility.yul\":2265:2285   */\n      tag_107\n      tag_58\n      jump\t// in\n    tag_107:\n        /* \"#utility.yul\":2255:2285   */\n      swap1\n      pop\n        /* \"#utility.yul\":2294:2327   */\n      tag_108\n        /* \"#utility.yul\":2322:2326   */\n      dup3\n        /* \"#utility.yul\":2314:2320   */\n      dup3\n        /* \"#utility.yul\":2294:2327   */\n      tag_67\n      jump\t// in\n    tag_108:\n        /* \"#utility.yul\":2204:2333   */\n      swap2\n      swap1\n      pop\n      jump\t// out\n        /* \"#utility.yul\":2339:2647   */\n    tag_69:\n        /* \"#utility.yul\":2401:2405   */\n      0x00\n        /* \"#utility.yul\":2491:2509   */\n      0xffffffffffffffff\n        /* \"#utility.yul\":2483:2489   */\n      dup3\n        /* \"#utility.yul\":2480:2510   */\n      gt\n        /* \"#utility.yul\":2477:2533   */\n      iszero\n      tag_110\n      jumpi\n        /* \"#utility.yul\":2513:2531   */\n      tag_111\n      tag_66\n      jump\t// in\n    tag_111:\n        /* \"#utility.yul\":2477:2533   */\n    tag_110:\n        /* \"#utility.yul\":2551:2580   */\n      tag_112\n        /* \"#utility.yul\":2573:2579   */\n      dup3\n        /* \"#utility.yul\":2551:2580   */\n      tag_65\n      jump\t// in\n    tag_112:\n        /* \"#utility.yul\":2543:2580   */\n      swap1\n      pop\n        /* \"#utility.yul\":2635:2639   */\n      0x20\n        /* \"#utility.yul\":2629:2633   */\n      dup2\n        /* \"#utility.yul\":2625:2640   */\n      add\n        /* \"#utility.yul\":2617:2640   */\n      swap1\n      pop\n        /* \"#utility.yul\":2339:2647   */\n      swap2\n      swap1\n      pop\n      jump\t// out\n        /* \"#utility.yul\":2653:2807   */\n    tag_70:\n        /* \"#utility.yul\":2737:2743   */\n      dup3\n        /* \"#utility.yul\":2732:2735   */\n      dup2\n        /* \"#utility.yul\":2727:2730   */\n      dup4\n        /* \"#utility.yul\":2714:2744   */\n      calldatacopy\n        /* \"#utility.yul\":2799:2800   */\n      0x00\n        /* \"#utility.yul\":2790:2796   */\n      dup4\n        /* \"#utility.yul\":2785:2788   */\n      dup4\n        /* \"#utility.yul\":2781:2797   */\n      add\n        /* \"#utility.yul\":2774:2801   */\n      mstore\n        /* \"#utility.yul\":2653:2807   */\n      pop\n      pop\n      pop\n      jump\t// out\n        /* \"#utility.yul\":2813:3225   */\n    tag_71:\n        /* \"#utility.yul\":2891:2896   */\n      0x00\n        /* \"#utility.yul\":2916:2982   */\n      tag_115\n        /* \"#utility.yul\":2932:2981   */\n      tag_116\n        /* \"#utility.yul\":2974:2980   */\n      dup5\n        /* \"#utility.yul\":2932:2981   */\n      tag_69\n      jump\t// in\n    tag_116:\n        /* \"#utility.yul\":2916:2982   */\n      tag_68\n      jump\t// in\n    tag_115:\n        /* \"#utility.yul\":2907:2982   */\n      swap1\n      pop\n        /* \"#utility.yul\":3005:3011   */\n      dup3\n        /* \"#utility.yul\":2998:3003   */\n      dup2\n        /* \"#utility.yul\":2991:3012   */\n      mstore\n        /* \"#utility.yul\":3043:3047   */\n      0x20\n        /* \"#utility.yul\":3036:3041   */\n      dup2\n        /* \"#utility.yul\":3032:3048   */\n      add\n        /* \"#utility.yul\":3081:3084   */\n      dup5\n        /* \"#utility.yul\":3072:3078   */\n      dup5\n        /* \"#utility.yul\":3067:3070   */\n      dup5\n        /* \"#utility.yul\":3063:3079   */\n      add\n        /* \"#utility.yul\":3060:3085   */\n      gt\n        /* \"#utility.yul\":3057:3169   */\n      iszero\n      tag_117\n      jumpi\n        /* \"#utility.yul\":3088:3167   */\n      tag_118\n      tag_64\n      jump\t// in\n    tag_118:\n        /* \"#utility.yul\":3057:3169   */\n    tag_117:\n        /* \"#utility.yul\":3178:3219   */\n      tag_119\n        /* \"#utility.yul\":3212:3218   */\n      dup5\n        /* \"#utility.yul\":3207:3210   */\n      dup3\n        /* \"#utility.yul\":3202:3205   */\n      dup6\n        /* \"#utility.yul\":3178:3219   */\n      tag_70\n      jump\t// in\n    tag_119:\n        /* \"#utility.yul\":2897:3225   */\n      pop\n        /* \"#utility.yul\":2813:3225   */\n      swap4\n      swap3\n      pop\n      pop\n      pop\n      jump\t// out\n        /* \"#utility.yul\":3245:3585   */\n    tag_72:\n        /* \"#utility.yul\":3301:3306   */\n      0x00\n        /* \"#utility.yul\":3350:3353   */\n      dup3\n        /* \"#utility.yul\":3343:3347   */\n      0x1f\n        /* \"#utility.yul\":3335:3341   */\n      dup4\n        /* \"#utility.yul\":3331:3348   */\n      add\n        /* \"#utility.yul\":3327:3354   */\n      slt\n        /* \"#utility.yul\":3317:3439   */\n      tag_121\n      jumpi\n        /* \"#utility.yul\":3358:3437   */\n      tag_122\n      tag_63\n      jump\t// in\n    tag_122:\n        /* \"#utility.yul\":3317:3439   */\n    tag_121:\n        /* \"#utility.yul\":3475:3481   */\n      dup2\n        /* \"#utility.yul\":3462:3482   */\n      calldataload\n        /* \"#utility.yul\":3500:3579   */\n      tag_123\n        /* \"#utility.yul\":3575:3578   */\n      dup5\n        /* \"#utility.yul\":3567:3573   */\n      dup3\n        /* \"#utility.yul\":3560:3564   */\n      0x20\n        /* \"#utility.yul\":3552:3558   */\n      dup7\n        /* \"#utility.yul\":3548:3565   */\n      add\n        /* \"#utility.yul\":3500:3579   */\n      tag_71\n      jump\t// in\n    tag_123:\n        /* \"#utility.yul\":3491:3579   */\n      swap2\n      pop\n        /* \"#utility.yul\":3307:3585   */\n      pop\n        /* \"#utility.yul\":3245:3585   */\n      swap3\n      swap2\n      pop\n      pop\n      jump\t// out\n        /* \"#utility.yul\":3591:4100   */\n    tag_18:\n        /* \"#utility.yul\":3660:3666   */\n      0x00\n        /* \"#utility.yul\":3709:3711   */\n      0x20\n        /* \"#utility.yul\":3697:3706   */\n      dup3\n        /* \"#utility.yul\":3688:3695   */\n      dup5\n        /* \"#utility.yul\":3684:3707   */\n      sub\n        /* \"#utility.yul\":3680:3712   */\n      slt\n        /* \"#utility.yul\":3677:3796   */\n      iszero\n      tag_125\n      jumpi\n        /* \"#utility.yul\":3715:3794   */\n      tag_126\n      tag_59\n      jump\t// in\n    tag_126:\n        /* \"#utility.yul\":3677:3796   */\n    tag_125:\n        /* \"#utility.yul\":3863:3864   */\n      0x00\n        /* \"#utility.yul\":3852:3861   */\n      dup3\n        /* \"#utility.yul\":3848:3865   */\n      add\n        /* \"#utility.yul\":3835:3866   */\n      calldataload\n        /* \"#utility.yul\":3893:3911   */\n      0xffffffffffffffff\n        /* \"#utility.yul\":3885:3891   */\n      dup2\n        /* \"#utility.yul\":3882:3912   */\n      gt\n        /* \"#utility.yul\":3879:3996   */\n      iszero\n      tag_127\n      jumpi\n        /* \"#utility.yul\":3915:3994   */\n      tag_128\n      tag_60\n      jump\t// in\n    tag_128:\n        /* \"#utility.yul\":3879:3996   */\n    tag_127:\n        /* \"#utility.yul\":4020:4083   */\n      tag_129\n        /* \"#utility.yul\":4075:4082   */\n      dup5\n        /* \"#utility.yul\":4066:4072   */\n      dup3\n        /* \"#utility.yul\":4055:4064   */\n      dup6\n        /* \"#utility.yul\":4051:4073   */\n      add\n        /* \"#utility.yul\":4020:4083   */\n      tag_72\n      jump\t// in\n    tag_129:\n        /* \"#utility.yul\":4010:4083   */\n      swap2\n      pop\n        /* \"#utility.yul\":3806:4093   */\n      pop\n        /* \"#utility.yul\":3591:4100   */\n      swap3\n      swap2\n      pop\n      pop\n      jump\t// out\n        /* \"#utility.yul\":4106:4205   */\n    tag_73:\n        /* \"#utility.yul\":4158:4164   */\n      0x00\n        /* \"#utility.yul\":4192:4197   */\n      dup2\n        /* \"#utility.yul\":4186:4198   */\n      mload\n        /* \"#utility.yul\":4176:4198   */\n      swap1\n      pop\n        /* \"#utility.yul\":4106:4205   */\n      swap2\n      swap1\n      pop\n      jump\t// out\n        /* \"#utility.yul\":4211:4380   */\n    tag_74:\n        /* \"#utility.yul\":4295:4306   */\n      0x00\n        /* \"#utility.yul\":4329:4335   */\n      dup3\n        /* \"#utility.yul\":4324:4327   */\n      dup3\n        /* \"#utility.yul\":4317:4336   */\n      mstore\n        /* \"#utility.yul\":4369:4373   */\n      0x20\n        /* \"#utility.yul\":4364:4367   */\n      dup3\n        /* \"#utility.yul\":4360:4374   */\n      add\n        /* \"#utility.yul\":4345:4374   */\n      swap1\n      pop\n        /* \"#utility.yul\":4211:4380   */\n      swap3\n      swap2\n      pop\n      pop\n      jump\t// out\n        /* \"#utility.yul\":4386:4693   */\n    tag_75:\n        /* \"#utility.yul\":4454:4455   */\n      0x00\n        /* \"#utility.yul\":4464:4577   */\n    tag_133:\n        /* \"#utility.yul\":4478:4484   */\n      dup4\n        /* \"#utility.yul\":4475:4476   */\n      dup2\n        /* \"#utility.yul\":4472:4485   */\n      lt\n        /* \"#utility.yul\":4464:4577   */\n      iszero\n      tag_135\n      jumpi\n        /* \"#utility.yul\":4563:4564   */\n      dup1\n        /* \"#utility.yul\":4558:4561   */\n      dup3\n        /* \"#utility.yul\":4554:4565   */\n      add\n        /* \"#utility.yul\":4548:4566   */\n      mload\n        /* \"#utility.yul\":4544:4545   */\n      dup2\n        /* \"#utility.yul\":4539:4542   */\n      dup5\n        /* \"#utility.yul\":4535:4546   */\n      add\n        /* \"#utility.yul\":4528:4567   */\n      mstore\n        /* \"#utility.yul\":4500:4502   */\n      0x20\n        /* \"#utility.yul\":4497:4498   */\n      dup2\n        /* \"#utility.yul\":4493:4503   */\n      add\n        /* \"#utility.yul\":4488:4503   */\n      swap1\n      pop\n        /* \"#utility.yul\":4464:4577   */\n      jump(tag_133)\n    tag_135:\n        /* \"#utility.yul\":4595:4601   */\n      dup4\n        /* \"#utility.yul\":4592:4593   */\n      dup2\n        /* \"#utility.yul\":4589:4602   */\n      gt\n        /* \"#utility.yul\":4586:4687   */\n      iszero\n      tag_136\n      jumpi\n        /* \"#utility.yul\":4675:4676   */\n      0x00\n        /* \"#utility.yul\":4666:4672   */\n      dup5\n        /* \"#utility.yul\":4661:4664   */\n      dup5\n        /* \"#utility.yul\":4657:4673   */\n      add\n        /* \"#utility.yul\":4650:4677   */\n      mstore\n        /* \"#utility.yul\":4586:4687   */\n    tag_136:\n        /* \"#utility.yul\":4435:4693   */\n      pop\n        /* \"#utility.yul\":4386:4693   */\n      pop\n      pop\n      pop\n      jump\t// out\n        /* \"#utility.yul\":4699:5063   */\n    tag_76:\n        /* \"#utility.yul\":4787:4790   */\n      0x00\n        /* \"#utility.yul\":4815:4854   */\n      tag_138\n        /* \"#utility.yul\":4848:4853   */\n      dup3\n        /* \"#utility.yul\":4815:4854   */\n      tag_73\n      jump\t// in\n    tag_138:\n        /* \"#utility.yul\":4870:4941   */\n      tag_139\n        /* \"#utility.yul\":4934:4940   */\n      dup2\n        /* \"#utility.yul\":4929:4932   */\n      dup6\n        /* \"#utility.yul\":4870:4941   */\n      tag_74\n      jump\t// in\n    tag_139:\n        /* \"#utility.yul\":4863:4941   */\n      swap4\n      pop\n        /* \"#utility.yul\":4950:5002   */\n      tag_140\n        /* \"#utility.yul\":4995:5001   */\n      dup2\n        /* \"#utility.yul\":4990:4993   */\n      dup6\n        /* \"#utility.yul\":4983:4987   */\n      0x20\n        /* \"#utility.yul\":4976:4981   */\n      dup7\n        /* \"#utility.yul\":4972:4988   */\n      add\n        /* \"#utility.yul\":4950:5002   */\n      tag_75\n      jump\t// in\n    tag_140:\n        /* \"#utility.yul\":5027:5056   */\n      tag_141\n        /* \"#utility.yul\":5049:5055   */\n      dup2\n        /* \"#utility.yul\":5027:5056   */\n      tag_65\n      jump\t// in\n    tag_141:\n        /* \"#utility.yul\":5022:5025   */\n      dup5\n        /* \"#utility.yul\":5018:5057   */\n      add\n        /* \"#utility.yul\":5011:5057   */\n      swap2\n      pop\n        /* \"#utility.yul\":4791:5063   */\n      pop\n        /* \"#utility.yul\":4699:5063   */\n      swap3\n      swap2\n      pop\n      pop\n      jump\t// out\n        /* \"#utility.yul\":5069:5492   */\n    tag_25:\n        /* \"#utility.yul\":5210:5214   */\n      0x00\n        /* \"#utility.yul\":5248:5250   */\n      0x40\n        /* \"#utility.yul\":5237:5246   */\n      dup3\n        /* \"#utility.yul\":5233:5251   */\n      add\n        /* \"#utility.yul\":5225:5251   */\n      swap1\n      pop\n        /* \"#utility.yul\":5261:5332   */\n      tag_143\n        /* \"#utility.yul\":5329:5330   */\n      0x00\n        /* \"#utility.yul\":5318:5327   */\n      dup4\n        /* \"#utility.yul\":5314:5331   */\n      add\n        /* \"#utility.yul\":5305:5311   */\n      dup6\n        /* \"#utility.yul\":5261:5332   */\n      tag_57\n      jump\t// in\n    tag_143:\n        /* \"#utility.yul\":5379:5388   */\n      dup2\n        /* \"#utility.yul\":5373:5377   */\n      dup2\n        /* \"#utility.yul\":5369:5389   */\n      sub\n        /* \"#utility.yul\":5364:5366   */\n      0x20\n        /* \"#utility.yul\":5353:5362   */\n      dup4\n        /* \"#utility.yul\":5349:5367   */\n      add\n        /* \"#utility.yul\":5342:5390   */\n      mstore\n        /* \"#utility.yul\":5407:5485   */\n      tag_144\n        /* \"#utility.yul\":5480:5484   */\n      dup2\n        /* \"#utility.yul\":5471:5477   */\n      dup5\n        /* \"#utility.yul\":5407:5485   */\n      tag_76\n      jump\t// in\n    tag_144:\n        /* \"#utility.yul\":5399:5485   */\n      swap1\n      pop\n        /* \"#utility.yul\":5069:5492   */\n      swap4\n      swap3\n      pop\n      pop\n      pop\n      jump\t// out\n        /* \"#utility.yul\":5498:6152   */\n    tag_28:\n        /* \"#utility.yul\":5576:5582   */\n      0x00\n        /* \"#utility.yul\":5584:5590   */\n      dup1\n        /* \"#utility.yul\":5633:5635   */\n      0x40\n        /* \"#utility.yul\":5621:5630   */\n      dup4\n        /* \"#utility.yul\":5612:5619   */\n      dup6\n        /* \"#utility.yul\":5608:5631   */\n      sub\n        /* \"#utility.yul\":5604:5636   */\n      slt\n        /* \"#utility.yul\":5601:5720   */\n      iszero\n      tag_146\n      jumpi\n        /* \"#utility.yul\":5639:5718   */\n      tag_147\n      tag_59\n      jump\t// in\n    tag_147:\n        /* \"#utility.yul\":5601:5720   */\n    tag_146:\n        /* \"#utility.yul\":5759:5760   */\n      0x00\n        /* \"#utility.yul\":5784:5837   */\n      tag_148\n        /* \"#utility.yul\":5829:5836   */\n      dup6\n        /* \"#utility.yul\":5820:5826   */\n      dup3\n        /* \"#utility.yul\":5809:5818   */\n      dup7\n        /* \"#utility.yul\":5805:5827   */\n      add\n        /* \"#utility.yul\":5784:5837   */\n      tag_62\n      jump\t// in\n    tag_148:\n        /* \"#utility.yul\":5774:5837   */\n      swap3\n      pop\n        /* \"#utility.yul\":5730:5847   */\n      pop\n        /* \"#utility.yul\":5914:5916   */\n      0x20\n        /* \"#utility.yul\":5903:5912   */\n      dup4\n        /* \"#utility.yul\":5899:5917   */\n      add\n        /* \"#utility.yul\":5886:5918   */\n      calldataload\n        /* \"#utility.yul\":5945:5963   */\n      0xffffffffffffffff\n        /* \"#utility.yul\":5937:5943   */\n      dup2\n        /* \"#utility.yul\":5934:5964   */\n      gt\n        /* \"#utility.yul\":5931:6048   */\n      iszero\n      tag_149\n      jumpi\n        /* \"#utility.yul\":5967:6046   */\n      tag_150\n      tag_60\n      jump\t// in\n    tag_150:\n        /* \"#utility.yul\":5931:6048   */\n    tag_149:\n        /* \"#utility.yul\":6072:6135   */\n      tag_151\n        /* \"#utility.yul\":6127:6134   */\n      dup6\n        /* \"#utility.yul\":6118:6124   */\n      dup3\n        /* \"#utility.yul\":6107:6116   */\n      dup7\n        /* \"#utility.yul\":6103:6125   */\n      add\n        /* \"#utility.yul\":6072:6135   */\n      tag_72\n      jump\t// in\n    tag_151:\n        /* \"#utility.yul\":6062:6135   */\n      swap2\n      pop\n        /* \"#utility.yul\":5857:6145   */\n      pop\n        /* \"#utility.yul\":5498:6152   */\n      swap3\n      pop\n      swap3\n      swap1\n      pop\n      jump\t// out\n        /* \"#utility.yul\":6158:6338   */\n    tag_77:\n        /* \"#utility.yul\":6206:6283   */\n      0x4e487b7100000000000000000000000000000000000000000000000000000000\n        /* \"#utility.yul\":6203:6204   */\n      0x00\n        /* \"#utility.yul\":6196:6284   */\n      mstore\n        /* \"#utility.yul\":6303:6307   */\n      0x22\n        /* \"#utility.yul\":6300:6301   */\n      0x04\n        /* \"#utility.yul\":6293:6308   */\n      mstore\n        /* \"#utility.yul\":6327:6331   */\n      0x24\n        /* \"#utility.yul\":6324:6325   */\n      0x00\n        /* \"#utility.yul\":6317:6332   */\n      revert\n        /* \"#utility.yul\":6344:6664   */\n    tag_35:\n        /* \"#utility.yul\":6388:6394   */\n      0x00\n        /* \"#utility.yul\":6425:6426   */\n      0x02\n        /* \"#utility.yul\":6419:6423   */\n      dup3\n        /* \"#utility.yul\":6415:6427   */\n      div\n        /* \"#utility.yul\":6405:6427   */\n      swap1\n      pop\n        /* \"#utility.yul\":6472:6473   */\n      0x01\n        /* \"#utility.yul\":6466:6470   */\n      dup3\n        /* \"#utility.yul\":6462:6474   */\n      and\n        /* \"#utility.yul\":6493:6511   */\n      dup1\n        /* \"#utility.yul\":6483:6564   */\n      tag_154\n      jumpi\n        /* \"#utility.yul\":6549:6553   */\n      0x7f\n        /* \"#utility.yul\":6541:6547   */\n      dup3\n        /* \"#utility.yul\":6537:6554   */\n      and\n        /* \"#utility.yul\":6527:6554   */\n      swap2\n      pop\n        /* \"#utility.yul\":6483:6564   */\n    tag_154:\n        /* \"#utility.yul\":6611:6613   */\n      0x20\n        /* \"#utility.yul\":6603:6609   */\n      dup3\n        /* \"#utility.yul\":6600:6614   */\n      lt\n        /* \"#utility.yul\":6580:6598   */\n      dup2\n        /* \"#utility.yul\":6577:6615   */\n      eq\n        /* \"#utility.yul\":6574:6658   */\n      iszero\n      tag_155\n      jumpi\n        /* \"#utility.yul\":6630:6648   */\n      tag_156\n      tag_77\n      jump\t// in\n    tag_156:\n        /* \"#utility.yul\":6574:6658   */\n    tag_155:\n        /* \"#utility.yul\":6395:6664   */\n      pop\n        /* \"#utility.yul\":6344:6664   */\n      swap2\n      swap1\n      pop\n      jump\t// out\n        /* \"#utility.yul\":6670:6818   */\n    tag_78:\n        /* \"#utility.yul\":6772:6783   */\n      0x00\n        /* \"#utility.yul\":6809:6812   */\n      dup2\n        /* \"#utility.yul\":6794:6812   */\n      swap1\n      pop\n        /* \"#utility.yul\":6670:6818   */\n      swap3\n      swap2\n      pop\n      pop\n      jump\t// out\n        /* \"#utility.yul\":6824:7201   */\n    tag_79:\n        /* \"#utility.yul\":6930:6933   */\n      0x00\n        /* \"#utility.yul\":6958:6997   */\n      tag_159\n        /* \"#utility.yul\":6991:6996   */\n      dup3\n        /* \"#utility.yul\":6958:6997   */\n      tag_73\n      jump\t// in\n    tag_159:\n        /* \"#utility.yul\":7013:7102   */\n      tag_160\n        /* \"#utility.yul\":7095:7101   */\n      dup2\n        /* \"#utility.yul\":7090:7093   */\n      dup6\n        /* \"#utility.yul\":7013:7102   */\n      tag_78\n      jump\t// in\n    tag_160:\n        /* \"#utility.yul\":7006:7102   */\n      swap4\n      pop\n        /* \"#utility.yul\":7111:7163   */\n      tag_161\n        /* \"#utility.yul\":7156:7162   */\n      dup2\n        /* \"#utility.yul\":7151:7154   */\n      dup6\n        /* \"#utility.yul\":7144:7148   */\n      0x20\n        /* \"#utility.yul\":7137:7142   */\n      dup7\n        /* \"#utility.yul\":7133:7149   */\n      add\n        /* \"#utility.yul\":7111:7163   */\n      tag_75\n      jump\t// in\n    tag_161:\n        /* \"#utility.yul\":7188:7194   */\n      dup1\n        /* \"#utility.yul\":7183:7186   */\n      dup5\n        /* \"#utility.yul\":7179:7195   */\n      add\n        /* \"#utility.yul\":7172:7195   */\n      swap2\n      pop\n        /* \"#utility.yul\":6934:7201   */\n      pop\n        /* \"#utility.yul\":6824:7201   */\n      swap3\n      swap2\n      pop\n      pop\n      jump\t// out\n        /* \"#utility.yul\":7207:7482   */\n    tag_45:\n        /* \"#utility.yul\":7339:7342   */\n      0x00\n        /* \"#utility.yul\":7361:7456   */\n      tag_163\n        /* \"#utility.yul\":7452:7455   */\n      dup3\n        /* \"#utility.yul\":7443:7449   */\n      dup5\n        /* \"#utility.yul\":7361:7456   */\n      tag_79\n      jump\t// in\n    tag_163:\n        /* \"#utility.yul\":7354:7456   */\n      swap2\n      pop\n        /* \"#utility.yul\":7473:7476   */\n      dup2\n        /* \"#utility.yul\":7466:7476   */\n      swap1\n      pop\n        /* \"#utility.yul\":7207:7482   */\n      swap3\n      swap2\n      pop\n      pop\n      jump\t// out\n\n    auxdata: 0xa2646970667358221220917411b95f803d91d5b399aa8b64bed2f729a30c7c54be679c2f8dbd2a035e6d64736f6c63430008080033\n}\n",
				"bytecode": {
					"linkReferences": {},
					"object": "608060405234801561001057600080fd5b50610777806100206000396000f3fe608060405234801561001057600080fd5b50600436106100575760003560e01c80632e64cec11461005c5780636057361d1461007a5780638bab8dd5146100965780639e7a13ad146100c6578063c7c78f35146100f7575b600080fd5b610064610113565b6040516100719190610362565b60405180910390f35b610094600480360381019061008f91906103bd565b61011c565b005b6100b060048036038101906100ab9190610530565b610126565b6040516100bd9190610362565b60405180910390f35b6100e060048036038101906100db91906103bd565b610154565b6040516100ee929190610601565b60405180910390f35b610111600480360381019061010c9190610631565b610210565b005b60008054905090565b8060008190555050565b6001818051602081018201805184825260208301602085012081835280955050505050506000915090505481565b6002818154811061016457600080fd5b906000526020600020906002020160009150905080600001549080600101805461018d906106bc565b80601f01602080910402602001604051908101604052809291908181526020018280546101b9906106bc565b80156102065780601f106101db57610100808354040283529160200191610206565b820191906000526020600020905b8154815290600101906020018083116101e957829003601f168201915b5050505050905082565b60006040518060400160405280848152602001838152509050600281908060018154018082558091505060019003906000526020600020906002020160009091909190915060008201518160000155602082015181600101908051906020019061027b9291906102a6565b5050508260018360405161028f919061072a565b908152602001604051809103902081905550505050565b8280546102b2906106bc565b90600052602060002090601f0160209004810192826102d4576000855561031b565b82601f106102ed57805160ff191683800117855561031b565b8280016001018555821561031b579182015b8281111561031a5782518255916020019190600101906102ff565b5b509050610328919061032c565b5090565b5b8082111561034557600081600090555060010161032d565b5090565b6000819050919050565b61035c81610349565b82525050565b60006020820190506103776000830184610353565b92915050565b6000604051905090565b600080fd5b600080fd5b61039a81610349565b81146103a557600080fd5b50565b6000813590506103b781610391565b92915050565b6000602082840312156103d3576103d2610387565b5b60006103e1848285016103a8565b91505092915050565b600080fd5b600080fd5b6000601f19601f8301169050919050565b7f4e487b7100000000000000000000000000000000000000000000000000000000600052604160045260246000fd5b61043d826103f4565b810181811067ffffffffffffffff8211171561045c5761045b610405565b5b80604052505050565b600061046f61037d565b905061047b8282610434565b919050565b600067ffffffffffffffff82111561049b5761049a610405565b5b6104a4826103f4565b9050602081019050919050565b82818337600083830152505050565b60006104d36104ce84610480565b610465565b9050828152602081018484840111156104ef576104ee6103ef565b5b6104fa8482856104b1565b509392505050565b600082601f830112610517576105166103ea565b5b81356105278482602086016104c0565b91505092915050565b60006020828403121561054657610545610387565b5b600082013567ffffffffffffffff8111156105645761056361038c565b5b61057084828501610502565b91505092915050565b600081519050919050565b600082825260208201905092915050565b60005b838110156105b3578082015181840152602081019050610598565b838111156105c2576000848401525b50505050565b60006105d382610579565b6105dd8185610584565b93506105ed818560208601610595565b6105f6816103f4565b840191505092915050565b60006040820190506106166000830185610353565b818103602083015261062881846105c8565b90509392505050565b6000806040838503121561064857610647610387565b5b6000610656858286016103a8565b925050602083013567ffffffffffffffff8111156106775761067661038c565b5b61068385828601610502565b9150509250929050565b7f4e487b7100000000000000000000000000000000000000000000000000000000600052602260045260246000fd5b600060028204905060018216806106d457607f821691505b602082108114156106e8576106e761068d565b5b50919050565b600081905092915050565b600061070482610579565b61070e81856106ee565b935061071e818560208601610595565b80840191505092915050565b600061073682846106f9565b91508190509291505056fea2646970667358221220917411b95f803d91d5b399aa8b64bed2f729a30c7c54be679c2f8dbd2a035e6d64736f6c63430008080033",
					"opcodes": "PUSH1 0x80 PUSH1 0x40 MSTORE CALLVALUE DUP1 ISZERO PUSH2 0x10 JUMPI PUSH1 0x0 DUP1 REVERT JUMPDEST POP PUSH2 0x777 DUP1 PUSH2 0x20 PUSH1 0x0 CODECOPY PUSH1 0x0 RETURN INVALID PUSH1 0x80 PUSH1 0x40 MSTORE CALLVALUE DUP1 ISZERO PUSH2 0x10 JUMPI PUSH1 0x0 DUP1 REVERT JUMPDEST POP PUSH1 0x4 CALLDATASIZE LT PUSH2 0x57 JUMPI PUSH1 0x0 CALLDATALOAD PUSH1 0xE0 SHR DUP1 PUSH4 0x2E64CEC1 EQ PUSH2 0x5C JUMPI DUP1 PUSH4 0x6057361D EQ PUSH2 0x7A JUMPI DUP1 PUSH4 0x8BAB8DD5 EQ PUSH2 0x96 JUMPI DUP1 PUSH4 0x9E7A13AD EQ PUSH2 0xC6 JUMPI DUP1 PUSH4 0xC7C78F35 EQ PUSH2 0xF7 JUMPI JUMPDEST PUSH1 0x0 DUP1 REVERT JUMPDEST PUSH2 0x64 PUSH2 0x113 JUMP JUMPDEST PUSH1 0x40 MLOAD PUSH2 0x71 SWAP2 SWAP1 PUSH2 0x362 JUMP JUMPDEST PUSH1 0x40 MLOAD DUP1 SWAP2 SUB SWAP1 RETURN JUMPDEST PUSH2 0x94 PUSH1 0x4 DUP1 CALLDATASIZE SUB DUP2 ADD SWAP1 PUSH2 0x8F SWAP2 SWAP1 PUSH2 0x3BD JUMP JUMPDEST PUSH2 0x11C JUMP JUMPDEST STOP JUMPDEST PUSH2 0xB0 PUSH1 0x4 DUP1 CALLDATASIZE SUB DUP2 ADD SWAP1 PUSH2 0xAB SWAP2 SWAP1 PUSH2 0x530 JUMP JUMPDEST PUSH2 0x126 JUMP JUMPDEST PUSH1 0x40 MLOAD PUSH2 0xBD SWAP2 SWAP1 PUSH2 0x362 JUMP JUMPDEST PUSH1 0x40 MLOAD DUP1 SWAP2 SUB SWAP1 RETURN JUMPDEST PUSH2 0xE0 PUSH1 0x4 DUP1 CALLDATASIZE SUB DUP2 ADD SWAP1 PUSH2 0xDB SWAP2 SWAP1 PUSH2 0x3BD JUMP JUMPDEST PUSH2 0x154 JUMP JUMPDEST PUSH1 0x40 MLOAD PUSH2 0xEE SWAP3 SWAP2 SWAP1 PUSH2 0x601 JUMP JUMPDEST PUSH1 0x40 MLOAD DUP1 SWAP2 SUB SWAP1 RETURN JUMPDEST PUSH2 0x111 PUSH1 0x4 DUP1 CALLDATASIZE SUB DUP2 ADD SWAP1 PUSH2 0x10C SWAP2 SWAP1 PUSH2 0x631 JUMP JUMPDEST PUSH2 0x210 JUMP JUMPDEST STOP JUMPDEST PUSH1 0x0 DUP1 SLOAD SWAP1 POP SWAP1 JUMP JUMPDEST DUP1 PUSH1 0x0 DUP2 SWAP1 SSTORE POP POP JUMP JUMPDEST PUSH1 0x1 DUP2 DUP1 MLOAD PUSH1 0x20 DUP2 ADD DUP3 ADD DUP1 MLOAD DUP5 DUP3 MSTORE PUSH1 0x20 DUP4 ADD PUSH1 0x20 DUP6 ADD KECCAK256 DUP2 DUP4 MSTORE DUP1 SWAP6 POP POP POP POP POP POP PUSH1 0x0 SWAP2 POP SWAP1 POP SLOAD DUP2 JUMP JUMPDEST PUSH1 0x2 DUP2 DUP2 SLOAD DUP2 LT PUSH2 0x164 JUMPI PUSH1 0x0 DUP1 REVERT JUMPDEST SWAP1 PUSH1 0x0 MSTORE PUSH1 0x20 PUSH1 0x0 KECCAK256 SWAP1 PUSH1 0x2 MUL ADD PUSH1 0x0 SWAP2 POP SWAP1 POP DUP1 PUSH1 0x0 ADD SLOAD SWAP1 DUP1 PUSH1 0x1 ADD DUP1 SLOAD PUSH2 0x18D SWAP1 PUSH2 0x6BC JUMP JUMPDEST DUP1 PUSH1 0x1F ADD PUSH1 0x20 DUP1 SWAP2 DIV MUL PUSH1 0x20 ADD PUSH1 0x40 MLOAD SWAP1 DUP2 ADD PUSH1 0x40 MSTORE DUP1 SWAP3 SWAP2 SWAP1 DUP2 DUP2 MSTORE PUSH1 0x20 ADD DUP3 DUP1 SLOAD PUSH2 0x1B9 SWAP1 PUSH2 0x6BC JUMP JUMPDEST DUP1 ISZERO PUSH2 0x206 JUMPI DUP1 PUSH1 0x1F LT PUSH2 0x1DB JUMPI PUSH2 0x100 DUP1 DUP4 SLOAD DIV MUL DUP4 MSTORE SWAP2 PUSH1 0x20 ADD SWAP2 PUSH2 0x206 JUMP JUMPDEST DUP3 ADD SWAP2 SWAP1 PUSH1 0x0 MSTORE PUSH1 0x20 PUSH1 0x0 KECCAK256 SWAP1 JUMPDEST DUP2 SLOAD DUP2 MSTORE SWAP1 PUSH1 0x1 ADD SWAP1 PUSH1 0x20 ADD DUP1 DUP4 GT PUSH2 0x1E9 JUMPI DUP3 SWAP1 SUB PUSH1 0x1F AND DUP3 ADD SWAP2 JUMPDEST POP POP POP POP POP SWAP1 POP DUP3 JUMP JUMPDEST PUSH1 0x0 PUSH1 0x40 MLOAD DUP1 PUSH1 0x40 ADD PUSH1 0x40 MSTORE DUP1 DUP5 DUP2 MSTORE PUSH1 0x20 ADD DUP4 DUP2 MSTORE POP SWAP1 POP PUSH1 0x2 DUP2 SWAP1 DUP1 PUSH1 0x1 DUP2 SLOAD ADD DUP1 DUP3 SSTORE DUP1 SWAP2 POP POP PUSH1 0x1 SWAP1 SUB SWAP1 PUSH1 0x0 MSTORE PUSH1 0x20 PUSH1 0x0 KECCAK256 SWAP1 PUSH1 0x2 MUL ADD PUSH1 0x0 SWAP1 SWAP2 SWAP1 SWAP2 SWAP1 SWAP2 POP PUSH1 0x0 DUP3 ADD MLOAD DUP2 PUSH1 0x0 ADD SSTORE PUSH1 0x20 DUP3 ADD MLOAD DUP2 PUSH1 0x1 ADD SWAP1 DUP1 MLOAD SWAP1 PUSH1 0x20 ADD SWAP1 PUSH2 0x27B SWAP3 SWAP2 SWAP1 PUSH2 0x2A6 JUMP JUMPDEST POP POP POP DUP3 PUSH1 0x1 DUP4 PUSH1 0x40 MLOAD PUSH2 0x28F SWAP2 SWAP1 PUSH2 0x72A JUMP JUMPDEST SWAP1 DUP2 MSTORE PUSH1 0x20 ADD PUSH1 0x40 MLOAD DUP1 SWAP2 SUB SWAP1 KECCAK256 DUP2 SWAP1 SSTORE POP POP POP POP JUMP JUMPDEST DUP3 DUP1 SLOAD PUSH2 0x2B2 SWAP1 PUSH2 0x6BC JUMP JUMPDEST SWAP1 PUSH1 0x0 MSTORE PUSH1 0x20 PUSH1 0x0 KECCAK256 SWAP1 PUSH1 0x1F ADD PUSH1 0x20 SWAP1 DIV DUP2 ADD SWAP3 DUP3 PUSH2 0x2D4 JUMPI PUSH1 0x0 DUP6 SSTORE PUSH2 0x31B JUMP JUMPDEST DUP3 PUSH1 0x1F LT PUSH2 0x2ED JUMPI DUP1 MLOAD PUSH1 0xFF NOT AND DUP4 DUP1 ADD OR DUP6 SSTORE PUSH2 0x31B JUMP JUMPDEST DUP3 DUP1 ADD PUSH1 0x1 ADD DUP6 SSTORE DUP3 ISZERO PUSH2 0x31B JUMPI SWAP2 DUP3 ADD JUMPDEST DUP3 DUP2 GT ISZERO PUSH2 0x31A JUMPI DUP3 MLOAD DUP3 SSTORE SWAP2 PUSH1 0x20 ADD SWAP2 SWAP1 PUSH1 0x1 ADD SWAP1 PUSH2 0x2FF JUMP JUMPDEST JUMPDEST POP SWAP1 POP PUSH2 0x328 SWAP2 SWAP1 PUSH2 0x32C JUMP JUMPDEST POP SWAP1 JUMP JUMPDEST JUMPDEST DUP1 DUP3 GT ISZERO PUSH2 0x345 JUMPI PUSH1 0x0 DUP2 PUSH1 0x0 SWAP1 SSTORE POP PUSH1 0x1 ADD PUSH2 0x32D JUMP JUMPDEST POP SWAP1 JUMP JUMPDEST PUSH1 0x0 DUP2 SWAP1 POP SWAP2 SWAP1 POP JUMP JUMPDEST PUSH2 0x35C DUP2 PUSH2 0x349 JUMP JUMPDEST DUP3 MSTORE POP POP JUMP JUMPDEST PUSH1 0x0 PUSH1 0x20 DUP3 ADD SWAP1 POP PUSH2 0x377 PUSH1 0x0 DUP4 ADD DUP5 PUSH2 0x353 JUMP JUMPDEST SWAP3 SWAP2 POP POP JUMP JUMPDEST PUSH1 0x0 PUSH1 0x40 MLOAD SWAP1 POP SWAP1 JUMP JUMPDEST PUSH1 0x0 DUP1 REVERT JUMPDEST PUSH1 0x0 DUP1 REVERT JUMPDEST PUSH2 0x39A DUP2 PUSH2 0x349 JUMP JUMPDEST DUP2 EQ PUSH2 0x3A5 JUMPI PUSH1 0x0 DUP1 REVERT JUMPDEST POP JUMP JUMPDEST PUSH1 0x0 DUP2 CALLDATALOAD SWAP1 POP PUSH2 0x3B7 DUP2 PUSH2 0x391 JUMP JUMPDEST SWAP3 SWAP2 POP POP JUMP JUMPDEST PUSH1 0x0 PUSH1 0x20 DUP3 DUP5 SUB SLT ISZERO PUSH2 0x3D3 JUMPI PUSH2 0x3D2 PUSH2 0x387 JUMP JUMPDEST JUMPDEST PUSH1 0x0 PUSH2 0x3E1 DUP5 DUP3 DUP6 ADD PUSH2 0x3A8 JUMP JUMPDEST SWAP2 POP POP SWAP3 SWAP2 POP POP JUMP JUMPDEST PUSH1 0x0 DUP1 REVERT JUMPDEST PUSH1 0x0 DUP1 REVERT JUMPDEST PUSH1 0x0 PUSH1 0x1F NOT PUSH1 0x1F DUP4 ADD AND SWAP1 POP SWAP2 SWAP1 POP JUMP JUMPDEST PUSH32 0x4E487B7100000000000000000000000000000000000000000000000000000000 PUSH1 0x0 MSTORE PUSH1 0x41 PUSH1 0x4 MSTORE PUSH1 0x24 PUSH1 0x0 REVERT JUMPDEST PUSH2 0x43D DUP3 PUSH2 0x3F4 JUMP JUMPDEST DUP2 ADD DUP2 DUP2 LT PUSH8 0xFFFFFFFFFFFFFFFF DUP3 GT OR ISZERO PUSH2 0x45C JUMPI PUSH2 0x45B PUSH2 0x405 JUMP JUMPDEST JUMPDEST DUP1 PUSH1 0x40 MSTORE POP POP POP JUMP JUMPDEST PUSH1 0x0 PUSH2 0x46F PUSH2 0x37D JUMP JUMPDEST SWAP1 POP PUSH2 0x47B DUP3 DUP3 PUSH2 0x434 JUMP JUMPDEST SWAP2 SWAP1 POP JUMP JUMPDEST PUSH1 0x0 PUSH8 0xFFFFFFFFFFFFFFFF DUP3 GT ISZERO PUSH2 0x49B JUMPI PUSH2 0x49A PUSH2 0x405 JUMP JUMPDEST JUMPDEST PUSH2 0x4A4 DUP3 PUSH2 0x3F4 JUMP JUMPDEST SWAP1 POP PUSH1 0x20 DUP2 ADD SWAP1 POP SWAP2 SWAP1 POP JUMP JUMPDEST DUP3 DUP2 DUP4 CALLDATACOPY PUSH1 0x0 DUP4 DUP4 ADD MSTORE POP POP POP JUMP JUMPDEST PUSH1 0x0 PUSH2 0x4D3 PUSH2 0x4CE DUP5 PUSH2 0x480 JUMP JUMPDEST PUSH2 0x465 JUMP JUMPDEST SWAP1 POP DUP3 DUP2 MSTORE PUSH1 0x20 DUP2 ADD DUP5 DUP5 DUP5 ADD GT ISZERO PUSH2 0x4EF JUMPI PUSH2 0x4EE PUSH2 0x3EF JUMP JUMPDEST JUMPDEST PUSH2 0x4FA DUP5 DUP3 DUP6 PUSH2 0x4B1 JUMP JUMPDEST POP SWAP4 SWAP3 POP POP POP JUMP JUMPDEST PUSH1 0x0 DUP3 PUSH1 0x1F DUP4 ADD SLT PUSH2 0x517 JUMPI PUSH2 0x516 PUSH2 0x3EA JUMP JUMPDEST JUMPDEST DUP2 CALLDATALOAD PUSH2 0x527 DUP5 DUP3 PUSH1 0x20 DUP7 ADD PUSH2 0x4C0 JUMP JUMPDEST SWAP2 POP POP SWAP3 SWAP2 POP POP JUMP JUMPDEST PUSH1 0x0 PUSH1 0x20 DUP3 DUP5 SUB SLT ISZERO PUSH2 0x546 JUMPI PUSH2 0x545 PUSH2 0x387 JUMP JUMPDEST JUMPDEST PUSH1 0x0 DUP3 ADD CALLDATALOAD PUSH8 0xFFFFFFFFFFFFFFFF DUP2 GT ISZERO PUSH2 0x564 JUMPI PUSH2 0x563 PUSH2 0x38C JUMP JUMPDEST JUMPDEST PUSH2 0x570 DUP5 DUP3 DUP6 ADD PUSH2 0x502 JUMP JUMPDEST SWAP2 POP POP SWAP3 SWAP2 POP POP JUMP JUMPDEST PUSH1 0x0 DUP2 MLOAD SWAP1 POP SWAP2 SWAP1 POP JUMP JUMPDEST PUSH1 0x0 DUP3 DUP3 MSTORE PUSH1 0x20 DUP3 ADD SWAP1 POP SWAP3 SWAP2 POP POP JUMP JUMPDEST PUSH1 0x0 JUMPDEST DUP4 DUP2 LT ISZERO PUSH2 0x5B3 JUMPI DUP1 DUP3 ADD MLOAD DUP2 DUP5 ADD MSTORE PUSH1 0x20 DUP2 ADD SWAP1 POP PUSH2 0x598 JUMP JUMPDEST DUP4 DUP2 GT ISZERO PUSH2 0x5C2 JUMPI PUSH1 0x0 DUP5 DUP5 ADD MSTORE JUMPDEST POP POP POP POP JUMP JUMPDEST PUSH1 0x0 PUSH2 0x5D3 DUP3 PUSH2 0x579 JUMP JUMPDEST PUSH2 0x5DD DUP2 DUP6 PUSH2 0x584 JUMP JUMPDEST SWAP4 POP PUSH2 0x5ED DUP2 DUP6 PUSH1 0x20 DUP7 ADD PUSH2 0x595 JUMP JUMPDEST PUSH2 0x5F6 DUP2 PUSH2 0x3F4 JUMP JUMPDEST DUP5 ADD SWAP2 POP POP SWAP3 SWAP2 POP POP JUMP JUMPDEST PUSH1 0x0 PUSH1 0x40 DUP3 ADD SWAP1 POP PUSH2 0x616 PUSH1 0x0 DUP4 ADD DUP6 PUSH2 0x353 JUMP JUMPDEST DUP2 DUP2 SUB PUSH1 0x20 DUP4 ADD MSTORE PUSH2 0x628 DUP2 DUP5 PUSH2 0x5C8 JUMP JUMPDEST SWAP1 POP SWAP4 SWAP3 POP POP POP JUMP JUMPDEST PUSH1 0x0 DUP1 PUSH1 0x40 DUP4 DUP6 SUB SLT ISZERO PUSH2 0x648 JUMPI PUSH2 0x647 PUSH2 0x387 JUMP JUMPDEST JUMPDEST PUSH1 0x0 PUSH2 0x656 DUP6 DUP3 DUP7 ADD PUSH2 0x3A8 JUMP JUMPDEST SWAP3 POP POP PUSH1 0x20 DUP4 ADD CALLDATALOAD PUSH8 0xFFFFFFFFFFFFFFFF DUP2 GT ISZERO PUSH2 0x677 JUMPI PUSH2 0x676 PUSH2 0x38C JUMP JUMPDEST JUMPDEST PUSH2 0x683 DUP6 DUP3 DUP7 ADD PUSH2 0x502 JUMP JUMPDEST SWAP2 POP POP SWAP3 POP SWAP3 SWAP1 POP JUMP JUMPDEST PUSH32 0x4E487B7100000000000000000000000000000000000000000000000000000000 PUSH1 0x0 MSTORE PUSH1 0x22 PUSH1 0x4 MSTORE PUSH1 0x24 PUSH1 0x0 REVERT JUMPDEST PUSH1 0x0 PUSH1 0x2 DUP3 DIV SWAP1 POP PUSH1 0x1 DUP3 AND DUP1 PUSH2 0x6D4 JUMPI PUSH1 0x7F DUP3 AND SWAP2 POP JUMPDEST PUSH1 0x20 DUP3 LT DUP2 EQ ISZERO PUSH2 0x6E8 JUMPI PUSH2 0x6E7 PUSH2 0x68D JUMP JUMPDEST JUMPDEST POP SWAP2 SWAP1 POP JUMP JUMPDEST PUSH1 0x0 DUP2 SWAP1 POP SWAP3 SWAP2 POP POP JUMP JUMPDEST PUSH1 0x0 PUSH2 0x704 DUP3 PUSH2 0x579 JUMP JUMPDEST PUSH2 0x70E DUP2 DUP6 PUSH2 0x6EE JUMP JUMPDEST SWAP4 POP PUSH2 0x71E DUP2 DUP6 PUSH1 0x20 DUP7 ADD PUSH2 0x595 JUMP JUMPDEST DUP1 DUP5 ADD SWAP2 POP POP SWAP3 SWAP2 POP POP JUMP JUMPDEST PUSH1 0x0 PUSH2 0x736 DUP3 DUP5 PUSH2 0x6F9 JUMP JUMPDEST SWAP2 POP DUP2 SWAP1 POP SWAP3 SWAP2 POP POP JUMP INVALID LOG2 PUSH5 0x6970667358 0x22 SLT KECCAK256 SWAP2 PUSH21 0x11B95F803D91D5B399AA8B64BED2F729A30C7C54BE PUSH8 0x9C2F8DBD2A035E6D PUSH5 0x736F6C6343 STOP ADDMOD ADDMOD STOP CALLER "
				},
				"gasEstimates": {
					"creation": {
						"codeDepositCost": "382200",
						"executionCost": "418",
						"totalCost": "382618"
					},
					"external": {
						"insertIntoArr(uint256,string)": "infinite",
						"nameToFavoriteNumber(string)": "infinite",
						"people(uint256)": "infinite",
						"retrieve()": "2415",
						"store(uint256)": "22520"
					}
				},
				"methodIdentifiers": {
					"insertIntoArr(uint256,string)": "c7c78f35",
					"nameToFavoriteNumber(string)": "8bab8dd5",
					"people(uint256)": "9e7a13ad",
					"retrieve()": "2e64cec1",
					"store(uint256)": "6057361d"
				}
			},
			"storageLayout": {
				"storage": [
					{
						"astId": 3,
						"contract": "contracts/SimpleStorage.sol:SimpleStorage",
						"label": "favoriteNumber",
						"offset": 0,
						"slot": "0",
						"type": "t_uint256"
					},
					{
						"astId": 7,
						"contract": "contracts/SimpleStorage.sol:SimpleStorage",
						"label": "nameToFavoriteNumber",
						"offset": 0,
						"slot": "1",
						"type": "t_mapping(t_string_memory_ptr,t_uint256)"
					},
					{
						"astId": 16,
						"contract": "contracts/SimpleStorage.sol:SimpleStorage",
						"label": "people",
						"offset": 0,
						"slot": "2",
						"type": "t_array(t_struct(People)12_storage)dyn_storage"
					}
				],
				"types": {
					"t_array(t_struct(People)12_storage)dyn_storage": {
						"base": "t_struct(People)12_storage",
						"encoding": "dynamic_array",
						"label": "struct SimpleStorage.People[]",
						"numberOfBytes": "32"
					},
					"t_mapping(t_string_memory_ptr,t_uint256)": {
						"encoding": "mapping",
						"key": "t_string_memory_ptr",
						"label": "mapping(string => uint256)",
						"numberOfBytes": "32",
						"value": "t_uint256"
					},
					"t_string_memory_ptr": {
						"encoding": "bytes",
						"label": "string",
						"numberOfBytes": "32"
					},
					"t_string_storage": {
						"encoding": "bytes",
						"label": "string",
						"numberOfBytes": "32"
					},
					"t_struct(People)12_storage": {
						"encoding": "inplace",
						"label": "struct SimpleStorage.People",
						"members": [
							{
								"astId": 9,
								"contract": "contracts/SimpleStorage.sol:SimpleStorage",
								"label": "favoriteNumber",
								"offset": 0,
								"slot": "0",
								"type": "t_uint256"
							},
							{
								"astId": 11,
								"contract": "contracts/SimpleStorage.sol:SimpleStorage",
								"label": "name",
								"offset": 0,
								"slot": "1",
								"type": "t_string_storage"
							}
						],
						"numberOfBytes": "64"
					},
					"t_uint256": {
						"encoding": "inplace",
						"label": "uint256",
						"numberOfBytes": "32"
					}
				}
			},
			"userdoc": {
				"kind": "user",
				"methods": {},
				"version": 1
			}
		}
	}
}