{
	"contracts/5_SImpleStorage.sol": {
		"SimpleStorage": {
			"abi": [
				{
					"inputs": [],
					"name": "add",
					"outputs": [
						{
							"internalType": "uint256",
							"name": "",
							"type": "uint256"
						}
					],
					"stateMutability": "pure",
					"type": "function"
				},
				{
					"inputs": [],
					"name": "favoriteNumber",
					"outputs": [
						{
							"internalType": "uint256",
							"name": "",
							"type": "uint256"
						}
					],
					"stateMutability": "view",
					"type": "function"
				},
				{
					"inputs": [
						{
							"internalType": "uint256",
							"name": "number",
							"type": "uint256"
						},
						{
							"internalType": "string",
							"name": "user",
							"type": "string"
						}
					],
					"name": "insertIntoArr",
					"outputs": [],
					"stateMutability": "nonpayable",
					"type": "function"
				},
				{
					"inputs": [
						{
							"internalType": "uint256",
							"name": "",
							"type": "uint256"
						}
					],
					"name": "people",
					"outputs": [
						{
							"internalType": "uint256",
							"name": "favoriteNumber",
							"type": "uint256"
						},
						{
							"internalType": "string",
							"name": "name",
							"type": "string"
						}
					],
					"stateMutability": "view",
					"type": "function"
				},
				{
					"inputs": [],
					"name": "retrieve",
					"outputs": [
						{
							"internalType": "uint256",
							"name": "",
							"type": "uint256"
						}
					],
					"stateMutability": "view",
					"type": "function"
				},
				{
					"inputs": [
						{
							"internalType": "uint256",
							"name": "numberToStore",
							"type": "uint256"
						}
					],
					"name": "store",
					"outputs": [],
					"stateMutability": "nonpayable",
					"type": "function"
				}
			],
			"devdoc": {
				"kind": "dev",
				"methods": {},
				"version": 1
			},
			"evm": {
				"assembly": "    /* \"contracts/5_SImpleStorage.sol\":56:912  contract SimpleStorage {... */\n  mstore(0x40, 0x80)\n  callvalue\n  dup1\n  iszero\n  tag_1\n  jumpi\n  0x00\n  dup1\n  revert\ntag_1:\n  pop\n  dataSize(sub_0)\n  dup1\n  dataOffset(sub_0)\n  0x00\n  codecopy\n  0x00\n  return\nstop\n\nsub_0: assembly {\n        /* \"contracts/5_SImpleStorage.sol\":56:912  contract SimpleStorage {... */\n      mstore(0x40, 0x80)\n      callvalue\n      dup1\n      iszero\n      tag_1\n      jumpi\n      0x00\n      dup1\n      revert\n    tag_1:\n      pop\n      jumpi(tag_2, lt(calldatasize, 0x04))\n      shr(0xe0, calldataload(0x00))\n      dup1\n      0x2e64cec1\n      eq\n      tag_3\n      jumpi\n      dup1\n      0x471f7cdf\n      eq\n      tag_4\n      jumpi\n      dup1\n      0x4f2be91f\n      eq\n      tag_5\n      jumpi\n      dup1\n      0x6057361d\n      eq\n      tag_6\n      jumpi\n      dup1\n      0x9e7a13ad\n      eq\n      tag_7\n      jumpi\n      dup1\n      0xc7c78f35\n      eq\n      tag_8\n      jumpi\n    tag_2:\n      0x00\n      dup1\n      revert\n        /* \"contracts/5_SImpleStorage.sol\":675:762  function retrieve() public view returns(uint256) {... */\n    tag_3:\n      tag_9\n      tag_10\n      jump\t// in\n    tag_9:\n      mload(0x40)\n      tag_11\n      swap2\n      swap1\n      tag_12\n      jump\t// in\n    tag_11:\n      mload(0x40)\n      dup1\n      swap2\n      sub\n      swap1\n      return\n        /* \"contracts/5_SImpleStorage.sol\":90:119  uint256 public favoriteNumber */\n    tag_4:\n      tag_13\n      tag_14\n      jump\t// in\n    tag_13:\n      mload(0x40)\n      tag_15\n      swap2\n      swap1\n      tag_12\n      jump\t// in\n    tag_15:\n      mload(0x40)\n      dup1\n      swap2\n      sub\n      swap1\n      return\n        /* \"contracts/5_SImpleStorage.sol\":838:910  function add() public pure returns(uint256){... */\n    tag_5:\n      tag_16\n      tag_17\n      jump\t// in\n    tag_16:\n      mload(0x40)\n      tag_18\n      swap2\n      swap1\n      tag_12\n      jump\t// in\n    tag_18:\n      mload(0x40)\n      dup1\n      swap2\n      sub\n      swap1\n      return\n        /* \"contracts/5_SImpleStorage.sol\":398:489  function store(uint256 numberToStore) public{... */\n    tag_6:\n      tag_19\n      0x04\n      dup1\n      calldatasize\n      sub\n      dup2\n      add\n      swap1\n      tag_20\n      swap2\n      swap1\n      tag_21\n      jump\t// in\n    tag_20:\n      tag_22\n      jump\t// in\n    tag_19:\n      stop\n        /* \"contracts/5_SImpleStorage.sol\":205:227  People[] public people */\n    tag_7:\n      tag_23\n      0x04\n      dup1\n      calldatasize\n      sub\n      dup2\n      add\n      swap1\n      tag_24\n      swap2\n      swap1\n      tag_21\n      jump\t// in\n    tag_24:\n      tag_25\n      jump\t// in\n    tag_23:\n      mload(0x40)\n      tag_26\n      swap3\n      swap2\n      swap1\n      tag_27\n      jump\t// in\n    tag_26:\n      mload(0x40)\n      dup1\n      swap2\n      sub\n      swap1\n      return\n        /* \"contracts/5_SImpleStorage.sol\":234:374  function insertIntoArr(uint256 number, string memory user) public {... */\n    tag_8:\n      tag_28\n      0x04\n      dup1\n      calldatasize\n      sub\n      dup2\n      add\n      swap1\n      tag_29\n      swap2\n      swap1\n      tag_30\n      jump\t// in\n    tag_29:\n      tag_31\n      jump\t// in\n    tag_28:\n      stop\n        /* \"contracts/5_SImpleStorage.sol\":675:762  function retrieve() public view returns(uint256) {... */\n    tag_10:\n        /* \"contracts/5_SImpleStorage.sol\":715:722  uint256 */\n      0x00\n        /* \"contracts/5_SImpleStorage.sol\":741:755  favoriteNumber */\n      dup1\n      sload\n        /* \"contracts/5_SImpleStorage.sol\":734:755  return favoriteNumber */\n      swap1\n      pop\n        /* \"contracts/5_SImpleStorage.sol\":675:762  function retrieve() public view returns(uint256) {... */\n      swap1\n      jump\t// out\n        /* \"contracts/5_SImpleStorage.sol\":90:119  uint256 public favoriteNumber */\n    tag_14:\n      sload(0x00)\n      dup2\n      jump\t// out\n        /* \"contracts/5_SImpleStorage.sol\":838:910  function add() public pure returns(uint256){... */\n    tag_17:\n        /* \"contracts/5_SImpleStorage.sol\":873:880  uint256 */\n      0x00\n        /* \"contracts/5_SImpleStorage.sol\":899:902  1+1 */\n      0x02\n        /* \"contracts/5_SImpleStorage.sol\":891:903  return (1+1) */\n      swap1\n      pop\n        /* \"contracts/5_SImpleStorage.sol\":838:910  function add() public pure returns(uint256){... */\n      swap1\n      jump\t// out\n        /* \"contracts/5_SImpleStorage.sol\":398:489  function store(uint256 numberToStore) public{... */\n    tag_22:\n        /* \"contracts/5_SImpleStorage.sol\":469:482  numberToStore */\n      dup1\n        /* \"contracts/5_SImpleStorage.sol\":452:466  favoriteNumber */\n      0x00\n        /* \"contracts/5_SImpleStorage.sol\":452:482  favoriteNumber = numberToStore */\n      dup2\n      swap1\n      sstore\n      pop\n        /* \"contracts/5_SImpleStorage.sol\":398:489  function store(uint256 numberToStore) public{... */\n      pop\n      jump\t// out\n        /* \"contracts/5_SImpleStorage.sol\":205:227  People[] public people */\n    tag_25:\n      0x01\n      dup2\n      dup2\n      sload\n      dup2\n      lt\n      tag_35\n      jumpi\n      0x00\n      dup1\n      revert\n    tag_35:\n      swap1\n      0x00\n      mstore\n      keccak256(0x00, 0x20)\n      swap1\n      0x02\n      mul\n      add\n      0x00\n      swap2\n      pop\n      swap1\n      pop\n      dup1\n      0x00\n      add\n      sload\n      swap1\n      dup1\n      0x01\n      add\n      dup1\n      sload\n      tag_37\n      swap1\n      tag_38\n      jump\t// in\n    tag_37:\n      dup1\n      0x1f\n      add\n      0x20\n      dup1\n      swap2\n      div\n      mul\n      0x20\n      add\n      mload(0x40)\n      swap1\n      dup2\n      add\n      0x40\n      mstore\n      dup1\n      swap3\n      swap2\n      swap1\n      dup2\n      dup2\n      mstore\n      0x20\n      add\n      dup3\n      dup1\n      sload\n      tag_39\n      swap1\n      tag_38\n      jump\t// in\n    tag_39:\n      dup1\n      iszero\n      tag_40\n      jumpi\n      dup1\n      0x1f\n      lt\n      tag_41\n      jumpi\n      0x0100\n      dup1\n      dup4\n      sload\n      div\n      mul\n      dup4\n      mstore\n      swap2\n      0x20\n      add\n      swap2\n      jump(tag_40)\n    tag_41:\n      dup3\n      add\n      swap2\n      swap1\n      0x00\n      mstore\n      keccak256(0x00, 0x20)\n      swap1\n    tag_42:\n      dup2\n      sload\n      dup2\n      mstore\n      swap1\n      0x01\n      add\n      swap1\n      0x20\n      add\n      dup1\n      dup4\n      gt\n      tag_42\n      jumpi\n      dup3\n      swap1\n      sub\n      0x1f\n      and\n      dup3\n      add\n      swap2\n    tag_40:\n      pop\n      pop\n      pop\n      pop\n      pop\n      swap1\n      pop\n      dup3\n      jump\t// out\n        /* \"contracts/5_SImpleStorage.sol\":234:374  function insertIntoArr(uint256 number, string memory user) public {... */\n    tag_31:\n        /* \"contracts/5_SImpleStorage.sol\":310:316  people */\n      0x01\n        /* \"contracts/5_SImpleStorage.sol\":322:366  People({favoriteNumber: number, name: user}) */\n      mload(0x40)\n      dup1\n      0x40\n      add\n      0x40\n      mstore\n      dup1\n        /* \"contracts/5_SImpleStorage.sol\":346:352  number */\n      dup5\n        /* \"contracts/5_SImpleStorage.sol\":322:366  People({favoriteNumber: number, name: user}) */\n      dup2\n      mstore\n      0x20\n      add\n        /* \"contracts/5_SImpleStorage.sol\":360:364  user */\n      dup4\n        /* \"contracts/5_SImpleStorage.sol\":322:366  People({favoriteNumber: number, name: user}) */\n      dup2\n      mstore\n      pop\n        /* \"contracts/5_SImpleStorage.sol\":310:367  people.push(People({favoriteNumber: number, name: user})) */\n      swap1\n      dup1\n      0x01\n      dup2\n      sload\n      add\n      dup1\n      dup3\n      sstore\n      dup1\n      swap2\n      pop\n      pop\n      0x01\n      swap1\n      sub\n      swap1\n      0x00\n      mstore\n      keccak256(0x00, 0x20)\n      swap1\n      0x02\n      mul\n      add\n      0x00\n      swap1\n      swap2\n      swap1\n      swap2\n      swap1\n      swap2\n      pop\n      0x00\n      dup3\n      add\n      mload\n      dup2\n      0x00\n      add\n      sstore\n      0x20\n      dup3\n      add\n      mload\n      dup2\n      0x01\n      add\n      swap1\n      dup1\n      mload\n      swap1\n      0x20\n      add\n      swap1\n      tag_45\n      swap3\n      swap2\n      swap1\n      tag_46\n      jump\t// in\n    tag_45:\n      pop\n      pop\n      pop\n        /* \"contracts/5_SImpleStorage.sol\":234:374  function insertIntoArr(uint256 number, string memory user) public {... */\n      pop\n      pop\n      jump\t// out\n    tag_46:\n      dup3\n      dup1\n      sload\n      tag_47\n      swap1\n      tag_38\n      jump\t// in\n    tag_47:\n      swap1\n      0x00\n      mstore\n      keccak256(0x00, 0x20)\n      swap1\n      0x1f\n      add\n      0x20\n      swap1\n      div\n      dup2\n      add\n      swap3\n      dup3\n      tag_49\n      jumpi\n      0x00\n      dup6\n      sstore\n      jump(tag_48)\n    tag_49:\n      dup3\n      0x1f\n      lt\n      tag_50\n      jumpi\n      dup1\n      mload\n      not(0xff)\n      and\n      dup4\n      dup1\n      add\n      or\n      dup6\n      sstore\n      jump(tag_48)\n    tag_50:\n      dup3\n      dup1\n      add\n      0x01\n      add\n      dup6\n      sstore\n      dup3\n      iszero\n      tag_48\n      jumpi\n      swap2\n      dup3\n      add\n    tag_51:\n      dup3\n      dup2\n      gt\n      iszero\n      tag_52\n      jumpi\n      dup3\n      mload\n      dup3\n      sstore\n      swap2\n      0x20\n      add\n      swap2\n      swap1\n      0x01\n      add\n      swap1\n      jump(tag_51)\n    tag_52:\n    tag_48:\n      pop\n      swap1\n      pop\n      tag_53\n      swap2\n      swap1\n      tag_54\n      jump\t// in\n    tag_53:\n      pop\n      swap1\n      jump\t// out\n    tag_54:\n    tag_55:\n      dup1\n      dup3\n      gt\n      iszero\n      tag_56\n      jumpi\n      0x00\n      dup2\n      0x00\n      swap1\n      sstore\n      pop\n      0x01\n      add\n      jump(tag_55)\n    tag_56:\n      pop\n      swap1\n      jump\t// out\n        /* \"#utility.yul\":7:84   */\n    tag_57:\n        /* \"#utility.yul\":44:51   */\n      0x00\n        /* \"#utility.yul\":73:78   */\n      dup2\n        /* \"#utility.yul\":62:78   */\n      swap1\n      pop\n        /* \"#utility.yul\":7:84   */\n      swap2\n      swap1\n      pop\n      jump\t// out\n        /* \"#utility.yul\":90:208   */\n    tag_58:\n        /* \"#utility.yul\":177:201   */\n      tag_82\n        /* \"#utility.yul\":195:200   */\n      dup2\n        /* \"#utility.yul\":177:201   */\n      tag_57\n      jump\t// in\n    tag_82:\n        /* \"#utility.yul\":172:175   */\n      dup3\n        /* \"#utility.yul\":165:202   */\n      mstore\n        /* \"#utility.yul\":90:208   */\n      pop\n      pop\n      jump\t// out\n        /* \"#utility.yul\":214:436   */\n    tag_12:\n        /* \"#utility.yul\":307:311   */\n      0x00\n        /* \"#utility.yul\":345:347   */\n      0x20\n        /* \"#utility.yul\":334:343   */\n      dup3\n        /* \"#utility.yul\":330:348   */\n      add\n        /* \"#utility.yul\":322:348   */\n      swap1\n      pop\n        /* \"#utility.yul\":358:429   */\n      tag_84\n        /* \"#utility.yul\":426:427   */\n      0x00\n        /* \"#utility.yul\":415:424   */\n      dup4\n        /* \"#utility.yul\":411:428   */\n      add\n        /* \"#utility.yul\":402:408   */\n      dup5\n        /* \"#utility.yul\":358:429   */\n      tag_58\n      jump\t// in\n    tag_84:\n        /* \"#utility.yul\":214:436   */\n      swap3\n      swap2\n      pop\n      pop\n      jump\t// out\n        /* \"#utility.yul\":442:517   */\n    tag_59:\n        /* \"#utility.yul\":475:481   */\n      0x00\n        /* \"#utility.yul\":508:510   */\n      0x40\n        /* \"#utility.yul\":502:511   */\n      mload\n        /* \"#utility.yul\":492:511   */\n      swap1\n      pop\n        /* \"#utility.yul\":442:517   */\n      swap1\n      jump\t// out\n        /* \"#utility.yul\":523:640   */\n    tag_60:\n        /* \"#utility.yul\":632:633   */\n      0x00\n        /* \"#utility.yul\":629:630   */\n      dup1\n        /* \"#utility.yul\":622:634   */\n      revert\n        /* \"#utility.yul\":646:763   */\n    tag_61:\n        /* \"#utility.yul\":755:756   */\n      0x00\n        /* \"#utility.yul\":752:753   */\n      dup1\n        /* \"#utility.yul\":745:757   */\n      revert\n        /* \"#utility.yul\":769:891   */\n    tag_62:\n        /* \"#utility.yul\":842:866   */\n      tag_89\n        /* \"#utility.yul\":860:865   */\n      dup2\n        /* \"#utility.yul\":842:866   */\n      tag_57\n      jump\t// in\n    tag_89:\n        /* \"#utility.yul\":835:840   */\n      dup2\n        /* \"#utility.yul\":832:867   */\n      eq\n        /* \"#utility.yul\":822:885   */\n      tag_90\n      jumpi\n        /* \"#utility.yul\":881:882   */\n      0x00\n        /* \"#utility.yul\":878:879   */\n      dup1\n        /* \"#utility.yul\":871:883   */\n      revert\n        /* \"#utility.yul\":822:885   */\n    tag_90:\n        /* \"#utility.yul\":769:891   */\n      pop\n      jump\t// out\n        /* \"#utility.yul\":897:1036   */\n    tag_63:\n        /* \"#utility.yul\":943:948   */\n      0x00\n        /* \"#utility.yul\":981:987   */\n      dup2\n        /* \"#utility.yul\":968:988   */\n      calldataload\n        /* \"#utility.yul\":959:988   */\n      swap1\n      pop\n        /* \"#utility.yul\":997:1030   */\n      tag_92\n        /* \"#utility.yul\":1024:1029   */\n      dup2\n        /* \"#utility.yul\":997:1030   */\n      tag_62\n      jump\t// in\n    tag_92:\n        /* \"#utility.yul\":897:1036   */\n      swap3\n      swap2\n      pop\n      pop\n      jump\t// out\n        /* \"#utility.yul\":1042:1371   */\n    tag_21:\n        /* \"#utility.yul\":1101:1107   */\n      0x00\n        /* \"#utility.yul\":1150:1152   */\n      0x20\n        /* \"#utility.yul\":1138:1147   */\n      dup3\n        /* \"#utility.yul\":1129:1136   */\n      dup5\n        /* \"#utility.yul\":1125:1148   */\n      sub\n        /* \"#utility.yul\":1121:1153   */\n      slt\n        /* \"#utility.yul\":1118:1237   */\n      iszero\n      tag_94\n      jumpi\n        /* \"#utility.yul\":1156:1235   */\n      tag_95\n      tag_60\n      jump\t// in\n    tag_95:\n        /* \"#utility.yul\":1118:1237   */\n    tag_94:\n        /* \"#utility.yul\":1276:1277   */\n      0x00\n        /* \"#utility.yul\":1301:1354   */\n      tag_96\n        /* \"#utility.yul\":1346:1353   */\n      dup5\n        /* \"#utility.yul\":1337:1343   */\n      dup3\n        /* \"#utility.yul\":1326:1335   */\n      dup6\n        /* \"#utility.yul\":1322:1344   */\n      add\n        /* \"#utility.yul\":1301:1354   */\n      tag_63\n      jump\t// in\n    tag_96:\n        /* \"#utility.yul\":1291:1354   */\n      swap2\n      pop\n        /* \"#utility.yul\":1247:1364   */\n      pop\n        /* \"#utility.yul\":1042:1371   */\n      swap3\n      swap2\n      pop\n      pop\n      jump\t// out\n        /* \"#utility.yul\":1377:1476   */\n    tag_64:\n        /* \"#utility.yul\":1429:1435   */\n      0x00\n        /* \"#utility.yul\":1463:1468   */\n      dup2\n        /* \"#utility.yul\":1457:1469   */\n      mload\n        /* \"#utility.yul\":1447:1469   */\n      swap1\n      pop\n        /* \"#utility.yul\":1377:1476   */\n      swap2\n      swap1\n      pop\n      jump\t// out\n        /* \"#utility.yul\":1482:1651   */\n    tag_65:\n        /* \"#utility.yul\":1566:1577   */\n      0x00\n        /* \"#utility.yul\":1600:1606   */\n      dup3\n        /* \"#utility.yul\":1595:1598   */\n      dup3\n        /* \"#utility.yul\":1588:1607   */\n      mstore\n        /* \"#utility.yul\":1640:1644   */\n      0x20\n        /* \"#utility.yul\":1635:1638   */\n      dup3\n        /* \"#utility.yul\":1631:1645   */\n      add\n        /* \"#utility.yul\":1616:1645   */\n      swap1\n      pop\n        /* \"#utility.yul\":1482:1651   */\n      swap3\n      swap2\n      pop\n      pop\n      jump\t// out\n        /* \"#utility.yul\":1657:1964   */\n    tag_66:\n        /* \"#utility.yul\":1725:1726   */\n      0x00\n        /* \"#utility.yul\":1735:1848   */\n    tag_100:\n        /* \"#utility.yul\":1749:1755   */\n      dup4\n        /* \"#utility.yul\":1746:1747   */\n      dup2\n        /* \"#utility.yul\":1743:1756   */\n      lt\n        /* \"#utility.yul\":1735:1848   */\n      iszero\n      tag_102\n      jumpi\n        /* \"#utility.yul\":1834:1835   */\n      dup1\n        /* \"#utility.yul\":1829:1832   */\n      dup3\n        /* \"#utility.yul\":1825:1836   */\n      add\n        /* \"#utility.yul\":1819:1837   */\n      mload\n        /* \"#utility.yul\":1815:1816   */\n      dup2\n        /* \"#utility.yul\":1810:1813   */\n      dup5\n        /* \"#utility.yul\":1806:1817   */\n      add\n        /* \"#utility.yul\":1799:1838   */\n      mstore\n        /* \"#utility.yul\":1771:1773   */\n      0x20\n        /* \"#utility.yul\":1768:1769   */\n      dup2\n        /* \"#utility.yul\":1764:1774   */\n      add\n        /* \"#utility.yul\":1759:1774   */\n      swap1\n      pop\n        /* \"#utility.yul\":1735:1848   */\n      jump(tag_100)\n    tag_102:\n        /* \"#utility.yul\":1866:1872   */\n      dup4\n        /* \"#utility.yul\":1863:1864   */\n      dup2\n        /* \"#utility.yul\":1860:1873   */\n      gt\n        /* \"#utility.yul\":1857:1958   */\n      iszero\n      tag_103\n      jumpi\n        /* \"#utility.yul\":1946:1947   */\n      0x00\n        /* \"#utility.yul\":1937:1943   */\n      dup5\n        /* \"#utility.yul\":1932:1935   */\n      dup5\n        /* \"#utility.yul\":1928:1944   */\n      add\n        /* \"#utility.yul\":1921:1948   */\n      mstore\n        /* \"#utility.yul\":1857:1958   */\n    tag_103:\n        /* \"#utility.yul\":1706:1964   */\n      pop\n        /* \"#utility.yul\":1657:1964   */\n      pop\n      pop\n      pop\n      jump\t// out\n        /* \"#utility.yul\":1970:2072   */\n    tag_67:\n        /* \"#utility.yul\":2011:2017   */\n      0x00\n        /* \"#utility.yul\":2062:2064   */\n      0x1f\n        /* \"#utility.yul\":2058:2065   */\n      not\n        /* \"#utility.yul\":2053:2055   */\n      0x1f\n        /* \"#utility.yul\":2046:2051   */\n      dup4\n        /* \"#utility.yul\":2042:2056   */\n      add\n        /* \"#utility.yul\":2038:2066   */\n      and\n        /* \"#utility.yul\":2028:2066   */\n      swap1\n      pop\n        /* \"#utility.yul\":1970:2072   */\n      swap2\n      swap1\n      pop\n      jump\t// out\n        /* \"#utility.yul\":2078:2442   */\n    tag_68:\n        /* \"#utility.yul\":2166:2169   */\n      0x00\n        /* \"#utility.yul\":2194:2233   */\n      tag_106\n        /* \"#utility.yul\":2227:2232   */\n      dup3\n        /* \"#utility.yul\":2194:2233   */\n      tag_64\n      jump\t// in\n    tag_106:\n        /* \"#utility.yul\":2249:2320   */\n      tag_107\n        /* \"#utility.yul\":2313:2319   */\n      dup2\n        /* \"#utility.yul\":2308:2311   */\n      dup6\n        /* \"#utility.yul\":2249:2320   */\n      tag_65\n      jump\t// in\n    tag_107:\n        /* \"#utility.yul\":2242:2320   */\n      swap4\n      pop\n        /* \"#utility.yul\":2329:2381   */\n      tag_108\n        /* \"#utility.yul\":2374:2380   */\n      dup2\n        /* \"#utility.yul\":2369:2372   */\n      dup6\n        /* \"#utility.yul\":2362:2366   */\n      0x20\n        /* \"#utility.yul\":2355:2360   */\n      dup7\n        /* \"#utility.yul\":2351:2367   */\n      add\n        /* \"#utility.yul\":2329:2381   */\n      tag_66\n      jump\t// in\n    tag_108:\n        /* \"#utility.yul\":2406:2435   */\n      tag_109\n        /* \"#utility.yul\":2428:2434   */\n      dup2\n        /* \"#utility.yul\":2406:2435   */\n      tag_67\n      jump\t// in\n    tag_109:\n        /* \"#utility.yul\":2401:2404   */\n      dup5\n        /* \"#utility.yul\":2397:2436   */\n      add\n        /* \"#utility.yul\":2390:2436   */\n      swap2\n      pop\n        /* \"#utility.yul\":2170:2442   */\n      pop\n        /* \"#utility.yul\":2078:2442   */\n      swap3\n      swap2\n      pop\n      pop\n      jump\t// out\n        /* \"#utility.yul\":2448:2871   */\n    tag_27:\n        /* \"#utility.yul\":2589:2593   */\n      0x00\n        /* \"#utility.yul\":2627:2629   */\n      0x40\n        /* \"#utility.yul\":2616:2625   */\n      dup3\n        /* \"#utility.yul\":2612:2630   */\n      add\n        /* \"#utility.yul\":2604:2630   */\n      swap1\n      pop\n        /* \"#utility.yul\":2640:2711   */\n      tag_111\n        /* \"#utility.yul\":2708:2709   */\n      0x00\n        /* \"#utility.yul\":2697:2706   */\n      dup4\n        /* \"#utility.yul\":2693:2710   */\n      add\n        /* \"#utility.yul\":2684:2690   */\n      dup6\n        /* \"#utility.yul\":2640:2711   */\n      tag_58\n      jump\t// in\n    tag_111:\n        /* \"#utility.yul\":2758:2767   */\n      dup2\n        /* \"#utility.yul\":2752:2756   */\n      dup2\n        /* \"#utility.yul\":2748:2768   */\n      sub\n        /* \"#utility.yul\":2743:2745   */\n      0x20\n        /* \"#utility.yul\":2732:2741   */\n      dup4\n        /* \"#utility.yul\":2728:2746   */\n      add\n        /* \"#utility.yul\":2721:2769   */\n      mstore\n        /* \"#utility.yul\":2786:2864   */\n      tag_112\n        /* \"#utility.yul\":2859:2863   */\n      dup2\n        /* \"#utility.yul\":2850:2856   */\n      dup5\n        /* \"#utility.yul\":2786:2864   */\n      tag_68\n      jump\t// in\n    tag_112:\n        /* \"#utility.yul\":2778:2864   */\n      swap1\n      pop\n        /* \"#utility.yul\":2448:2871   */\n      swap4\n      swap3\n      pop\n      pop\n      pop\n      jump\t// out\n        /* \"#utility.yul\":2877:2994   */\n    tag_69:\n        /* \"#utility.yul\":2986:2987   */\n      0x00\n        /* \"#utility.yul\":2983:2984   */\n      dup1\n        /* \"#utility.yul\":2976:2988   */\n      revert\n        /* \"#utility.yul\":3000:3117   */\n    tag_70:\n        /* \"#utility.yul\":3109:3110   */\n      0x00\n        /* \"#utility.yul\":3106:3107   */\n      dup1\n        /* \"#utility.yul\":3099:3111   */\n      revert\n        /* \"#utility.yul\":3123:3303   */\n    tag_71:\n        /* \"#utility.yul\":3171:3248   */\n      0x4e487b7100000000000000000000000000000000000000000000000000000000\n        /* \"#utility.yul\":3168:3169   */\n      0x00\n        /* \"#utility.yul\":3161:3249   */\n      mstore\n        /* \"#utility.yul\":3268:3272   */\n      0x41\n        /* \"#utility.yul\":3265:3266   */\n      0x04\n        /* \"#utility.yul\":3258:3273   */\n      mstore\n        /* \"#utility.yul\":3292:3296   */\n      0x24\n        /* \"#utility.yul\":3289:3290   */\n      0x00\n        /* \"#utility.yul\":3282:3297   */\n      revert\n        /* \"#utility.yul\":3309:3590   */\n    tag_72:\n        /* \"#utility.yul\":3392:3419   */\n      tag_117\n        /* \"#utility.yul\":3414:3418   */\n      dup3\n        /* \"#utility.yul\":3392:3419   */\n      tag_67\n      jump\t// in\n    tag_117:\n        /* \"#utility.yul\":3384:3390   */\n      dup2\n        /* \"#utility.yul\":3380:3420   */\n      add\n        /* \"#utility.yul\":3522:3528   */\n      dup2\n        /* \"#utility.yul\":3510:3520   */\n      dup2\n        /* \"#utility.yul\":3507:3529   */\n      lt\n        /* \"#utility.yul\":3486:3504   */\n      0xffffffffffffffff\n        /* \"#utility.yul\":3474:3484   */\n      dup3\n        /* \"#utility.yul\":3471:3505   */\n      gt\n        /* \"#utility.yul\":3468:3530   */\n      or\n        /* \"#utility.yul\":3465:3553   */\n      iszero\n      tag_118\n      jumpi\n        /* \"#utility.yul\":3533:3551   */\n      tag_119\n      tag_71\n      jump\t// in\n    tag_119:\n        /* \"#utility.yul\":3465:3553   */\n    tag_118:\n        /* \"#utility.yul\":3573:3583   */\n      dup1\n        /* \"#utility.yul\":3569:3571   */\n      0x40\n        /* \"#utility.yul\":3562:3584   */\n      mstore\n        /* \"#utility.yul\":3352:3590   */\n      pop\n        /* \"#utility.yul\":3309:3590   */\n      pop\n      pop\n      jump\t// out\n        /* \"#utility.yul\":3596:3725   */\n    tag_73:\n        /* \"#utility.yul\":3630:3636   */\n      0x00\n        /* \"#utility.yul\":3657:3677   */\n      tag_121\n      tag_59\n      jump\t// in\n    tag_121:\n        /* \"#utility.yul\":3647:3677   */\n      swap1\n      pop\n        /* \"#utility.yul\":3686:3719   */\n      tag_122\n        /* \"#utility.yul\":3714:3718   */\n      dup3\n        /* \"#utility.yul\":3706:3712   */\n      dup3\n        /* \"#utility.yul\":3686:3719   */\n      tag_72\n      jump\t// in\n    tag_122:\n        /* \"#utility.yul\":3596:3725   */\n      swap2\n      swap1\n      pop\n      jump\t// out\n        /* \"#utility.yul\":3731:4039   */\n    tag_74:\n        /* \"#utility.yul\":3793:3797   */\n      0x00\n        /* \"#utility.yul\":3883:3901   */\n      0xffffffffffffffff\n        /* \"#utility.yul\":3875:3881   */\n      dup3\n        /* \"#utility.yul\":3872:3902   */\n      gt\n        /* \"#utility.yul\":3869:3925   */\n      iszero\n      tag_124\n      jumpi\n        /* \"#utility.yul\":3905:3923   */\n      tag_125\n      tag_71\n      jump\t// in\n    tag_125:\n        /* \"#utility.yul\":3869:3925   */\n    tag_124:\n        /* \"#utility.yul\":3943:3972   */\n      tag_126\n        /* \"#utility.yul\":3965:3971   */\n      dup3\n        /* \"#utility.yul\":3943:3972   */\n      tag_67\n      jump\t// in\n    tag_126:\n        /* \"#utility.yul\":3935:3972   */\n      swap1\n      pop\n        /* \"#utility.yul\":4027:4031   */\n      0x20\n        /* \"#utility.yul\":4021:4025   */\n      dup2\n        /* \"#utility.yul\":4017:4032   */\n      add\n        /* \"#utility.yul\":4009:4032   */\n      swap1\n      pop\n        /* \"#utility.yul\":3731:4039   */\n      swap2\n      swap1\n      pop\n      jump\t// out\n        /* \"#utility.yul\":4045:4199   */\n    tag_75:\n        /* \"#utility.yul\":4129:4135   */\n      dup3\n        /* \"#utility.yul\":4124:4127   */\n      dup2\n        /* \"#utility.yul\":4119:4122   */\n      dup4\n        /* \"#utility.yul\":4106:4136   */\n      calldatacopy\n        /* \"#utility.yul\":4191:4192   */\n      0x00\n        /* \"#utility.yul\":4182:4188   */\n      dup4\n        /* \"#utility.yul\":4177:4180   */\n      dup4\n        /* \"#utility.yul\":4173:4189   */\n      add\n        /* \"#utility.yul\":4166:4193   */\n      mstore\n        /* \"#utility.yul\":4045:4199   */\n      pop\n      pop\n      pop\n      jump\t// out\n        /* \"#utility.yul\":4205:4617   */\n    tag_76:\n        /* \"#utility.yul\":4283:4288   */\n      0x00\n        /* \"#utility.yul\":4308:4374   */\n      tag_129\n        /* \"#utility.yul\":4324:4373   */\n      tag_130\n        /* \"#utility.yul\":4366:4372   */\n      dup5\n        /* \"#utility.yul\":4324:4373   */\n      tag_74\n      jump\t// in\n    tag_130:\n        /* \"#utility.yul\":4308:4374   */\n      tag_73\n      jump\t// in\n    tag_129:\n        /* \"#utility.yul\":4299:4374   */\n      swap1\n      pop\n        /* \"#utility.yul\":4397:4403   */\n      dup3\n        /* \"#utility.yul\":4390:4395   */\n      dup2\n        /* \"#utility.yul\":4383:4404   */\n      mstore\n        /* \"#utility.yul\":4435:4439   */\n      0x20\n        /* \"#utility.yul\":4428:4433   */\n      dup2\n        /* \"#utility.yul\":4424:4440   */\n      add\n        /* \"#utility.yul\":4473:4476   */\n      dup5\n        /* \"#utility.yul\":4464:4470   */\n      dup5\n        /* \"#utility.yul\":4459:4462   */\n      dup5\n        /* \"#utility.yul\":4455:4471   */\n      add\n        /* \"#utility.yul\":4452:4477   */\n      gt\n        /* \"#utility.yul\":4449:4561   */\n      iszero\n      tag_131\n      jumpi\n        /* \"#utility.yul\":4480:4559   */\n      tag_132\n      tag_70\n      jump\t// in\n    tag_132:\n        /* \"#utility.yul\":4449:4561   */\n    tag_131:\n        /* \"#utility.yul\":4570:4611   */\n      tag_133\n        /* \"#utility.yul\":4604:4610   */\n      dup5\n        /* \"#utility.yul\":4599:4602   */\n      dup3\n        /* \"#utility.yul\":4594:4597   */\n      dup6\n        /* \"#utility.yul\":4570:4611   */\n      tag_75\n      jump\t// in\n    tag_133:\n        /* \"#utility.yul\":4289:4617   */\n      pop\n        /* \"#utility.yul\":4205:4617   */\n      swap4\n      swap3\n      pop\n      pop\n      pop\n      jump\t// out\n        /* \"#utility.yul\":4637:4977   */\n    tag_77:\n        /* \"#utility.yul\":4693:4698   */\n      0x00\n        /* \"#utility.yul\":4742:4745   */\n      dup3\n        /* \"#utility.yul\":4735:4739   */\n      0x1f\n        /* \"#utility.yul\":4727:4733   */\n      dup4\n        /* \"#utility.yul\":4723:4740   */\n      add\n        /* \"#utility.yul\":4719:4746   */\n      slt\n        /* \"#utility.yul\":4709:4831   */\n      tag_135\n      jumpi\n        /* \"#utility.yul\":4750:4829   */\n      tag_136\n      tag_69\n      jump\t// in\n    tag_136:\n        /* \"#utility.yul\":4709:4831   */\n    tag_135:\n        /* \"#utility.yul\":4867:4873   */\n      dup2\n        /* \"#utility.yul\":4854:4874   */\n      calldataload\n        /* \"#utility.yul\":4892:4971   */\n      tag_137\n        /* \"#utility.yul\":4967:4970   */\n      dup5\n        /* \"#utility.yul\":4959:4965   */\n      dup3\n        /* \"#utility.yul\":4952:4956   */\n      0x20\n        /* \"#utility.yul\":4944:4950   */\n      dup7\n        /* \"#utility.yul\":4940:4957   */\n      add\n        /* \"#utility.yul\":4892:4971   */\n      tag_76\n      jump\t// in\n    tag_137:\n        /* \"#utility.yul\":4883:4971   */\n      swap2\n      pop\n        /* \"#utility.yul\":4699:4977   */\n      pop\n        /* \"#utility.yul\":4637:4977   */\n      swap3\n      swap2\n      pop\n      pop\n      jump\t// out\n        /* \"#utility.yul\":4983:5637   */\n    tag_30:\n        /* \"#utility.yul\":5061:5067   */\n      0x00\n        /* \"#utility.yul\":5069:5075   */\n      dup1\n        /* \"#utility.yul\":5118:5120   */\n      0x40\n        /* \"#utility.yul\":5106:5115   */\n      dup4\n        /* \"#utility.yul\":5097:5104   */\n      dup6\n        /* \"#utility.yul\":5093:5116   */\n      sub\n        /* \"#utility.yul\":5089:5121   */\n      slt\n        /* \"#utility.yul\":5086:5205   */\n      iszero\n      tag_139\n      jumpi\n        /* \"#utility.yul\":5124:5203   */\n      tag_140\n      tag_60\n      jump\t// in\n    tag_140:\n        /* \"#utility.yul\":5086:5205   */\n    tag_139:\n        /* \"#utility.yul\":5244:5245   */\n      0x00\n        /* \"#utility.yul\":5269:5322   */\n      tag_141\n        /* \"#utility.yul\":5314:5321   */\n      dup6\n        /* \"#utility.yul\":5305:5311   */\n      dup3\n        /* \"#utility.yul\":5294:5303   */\n      dup7\n        /* \"#utility.yul\":5290:5312   */\n      add\n        /* \"#utility.yul\":5269:5322   */\n      tag_63\n      jump\t// in\n    tag_141:\n        /* \"#utility.yul\":5259:5322   */\n      swap3\n      pop\n        /* \"#utility.yul\":5215:5332   */\n      pop\n        /* \"#utility.yul\":5399:5401   */\n      0x20\n        /* \"#utility.yul\":5388:5397   */\n      dup4\n        /* \"#utility.yul\":5384:5402   */\n      add\n        /* \"#utility.yul\":5371:5403   */\n      calldataload\n        /* \"#utility.yul\":5430:5448   */\n      0xffffffffffffffff\n        /* \"#utility.yul\":5422:5428   */\n      dup2\n        /* \"#utility.yul\":5419:5449   */\n      gt\n        /* \"#utility.yul\":5416:5533   */\n      iszero\n      tag_142\n      jumpi\n        /* \"#utility.yul\":5452:5531   */\n      tag_143\n      tag_61\n      jump\t// in\n    tag_143:\n        /* \"#utility.yul\":5416:5533   */\n    tag_142:\n        /* \"#utility.yul\":5557:5620   */\n      tag_144\n        /* \"#utility.yul\":5612:5619   */\n      dup6\n        /* \"#utility.yul\":5603:5609   */\n      dup3\n        /* \"#utility.yul\":5592:5601   */\n      dup7\n        /* \"#utility.yul\":5588:5610   */\n      add\n        /* \"#utility.yul\":5557:5620   */\n      tag_77\n      jump\t// in\n    tag_144:\n        /* \"#utility.yul\":5547:5620   */\n      swap2\n      pop\n        /* \"#utility.yul\":5342:5630   */\n      pop\n        /* \"#utility.yul\":4983:5637   */\n      swap3\n      pop\n      swap3\n      swap1\n      pop\n      jump\t// out\n        /* \"#utility.yul\":5643:5823   */\n    tag_78:\n        /* \"#utility.yul\":5691:5768   */\n      0x4e487b7100000000000000000000000000000000000000000000000000000000\n        /* \"#utility.yul\":5688:5689   */\n      0x00\n        /* \"#utility.yul\":5681:5769   */\n      mstore\n        /* \"#utility.yul\":5788:5792   */\n      0x22\n        /* \"#utility.yul\":5785:5786   */\n      0x04\n        /* \"#utility.yul\":5778:5793   */\n      mstore\n        /* \"#utility.yul\":5812:5816   */\n      0x24\n        /* \"#utility.yul\":5809:5810   */\n      0x00\n        /* \"#utility.yul\":5802:5817   */\n      revert\n        /* \"#utility.yul\":5829:6149   */\n    tag_38:\n        /* \"#utility.yul\":5873:5879   */\n      0x00\n        /* \"#utility.yul\":5910:5911   */\n      0x02\n        /* \"#utility.yul\":5904:5908   */\n      dup3\n        /* \"#utility.yul\":5900:5912   */\n      div\n        /* \"#utility.yul\":5890:5912   */\n      swap1\n      pop\n        /* \"#utility.yul\":5957:5958   */\n      0x01\n        /* \"#utility.yul\":5951:5955   */\n      dup3\n        /* \"#utility.yul\":5947:5959   */\n      and\n        /* \"#utility.yul\":5978:5996   */\n      dup1\n        /* \"#utility.yul\":5968:6049   */\n      tag_147\n      jumpi\n        /* \"#utility.yul\":6034:6038   */\n      0x7f\n        /* \"#utility.yul\":6026:6032   */\n      dup3\n        /* \"#utility.yul\":6022:6039   */\n      and\n        /* \"#utility.yul\":6012:6039   */\n      swap2\n      pop\n        /* \"#utility.yul\":5968:6049   */\n    tag_147:\n        /* \"#utility.yul\":6096:6098   */\n      0x20\n        /* \"#utility.yul\":6088:6094   */\n      dup3\n        /* \"#utility.yul\":6085:6099   */\n      lt\n        /* \"#utility.yul\":6065:6083   */\n      dup2\n        /* \"#utility.yul\":6062:6100   */\n      eq\n        /* \"#utility.yul\":6059:6143   */\n      iszero\n      tag_148\n      jumpi\n        /* \"#utility.yul\":6115:6133   */\n      tag_149\n      tag_78\n      jump\t// in\n    tag_149:\n        /* \"#utility.yul\":6059:6143   */\n    tag_148:\n        /* \"#utility.yul\":5880:6149   */\n      pop\n        /* \"#utility.yul\":5829:6149   */\n      swap2\n      swap1\n      pop\n      jump\t// out\n\n    auxdata: 0xa26469706673582212209a2d21285f5256daef8a4c6b8b8c2c07309168d31f3892ea80bd4fbdafd87cc464736f6c63430008080033\n}\n",
				"bytecode": {
					"linkReferences": {},
					"object": "608060405234801561001057600080fd5b506106aa806100206000396000f3fe608060405234801561001057600080fd5b50600436106100625760003560e01c80632e64cec114610067578063471f7cdf146100855780634f2be91f146100a35780636057361d146100c15780639e7a13ad146100dd578063c7c78f351461010e575b600080fd5b61006f61012a565b60405161007c9190610331565b60405180910390f35b61008d610133565b60405161009a9190610331565b60405180910390f35b6100ab610139565b6040516100b89190610331565b60405180910390f35b6100db60048036038101906100d6919061038c565b610142565b005b6100f760048036038101906100f2919061038c565b61014c565b604051610105929190610452565b60405180910390f35b610128600480360381019061012391906105b7565b610208565b005b60008054905090565b60005481565b60006002905090565b8060008190555050565b6001818154811061015c57600080fd5b906000526020600020906002020160009150905080600001549080600101805461018590610642565b80601f01602080910402602001604051908101604052809291908181526020018280546101b190610642565b80156101fe5780601f106101d3576101008083540402835291602001916101fe565b820191906000526020600020905b8154815290600101906020018083116101e157829003601f168201915b5050505050905082565b6001604051806040016040528084815260200183815250908060018154018082558091505060019003906000526020600020906002020160009091909190915060008201518160000155602082015181600101908051906020019061026e929190610275565b5050505050565b82805461028190610642565b90600052602060002090601f0160209004810192826102a357600085556102ea565b82601f106102bc57805160ff19168380011785556102ea565b828001600101855582156102ea579182015b828111156102e95782518255916020019190600101906102ce565b5b5090506102f791906102fb565b5090565b5b808211156103145760008160009055506001016102fc565b5090565b6000819050919050565b61032b81610318565b82525050565b60006020820190506103466000830184610322565b92915050565b6000604051905090565b600080fd5b600080fd5b61036981610318565b811461037457600080fd5b50565b60008135905061038681610360565b92915050565b6000602082840312156103a2576103a1610356565b5b60006103b084828501610377565b91505092915050565b600081519050919050565b600082825260208201905092915050565b60005b838110156103f35780820151818401526020810190506103d8565b83811115610402576000848401525b50505050565b6000601f19601f8301169050919050565b6000610424826103b9565b61042e81856103c4565b935061043e8185602086016103d5565b61044781610408565b840191505092915050565b60006040820190506104676000830185610322565b81810360208301526104798184610419565b90509392505050565b600080fd5b600080fd5b7f4e487b7100000000000000000000000000000000000000000000000000000000600052604160045260246000fd5b6104c482610408565b810181811067ffffffffffffffff821117156104e3576104e261048c565b5b80604052505050565b60006104f661034c565b905061050282826104bb565b919050565b600067ffffffffffffffff8211156105225761052161048c565b5b61052b82610408565b9050602081019050919050565b82818337600083830152505050565b600061055a61055584610507565b6104ec565b90508281526020810184848401111561057657610575610487565b5b610581848285610538565b509392505050565b600082601f83011261059e5761059d610482565b5b81356105ae848260208601610547565b91505092915050565b600080604083850312156105ce576105cd610356565b5b60006105dc85828601610377565b925050602083013567ffffffffffffffff8111156105fd576105fc61035b565b5b61060985828601610589565b9150509250929050565b7f4e487b7100000000000000000000000000000000000000000000000000000000600052602260045260246000fd5b6000600282049050600182168061065a57607f821691505b6020821081141561066e5761066d610613565b5b5091905056fea26469706673582212209a2d21285f5256daef8a4c6b8b8c2c07309168d31f3892ea80bd4fbdafd87cc464736f6c63430008080033",
					"opcodes": "PUSH1 0x80 PUSH1 0x40 MSTORE CALLVALUE DUP1 ISZERO PUSH2 0x10 JUMPI PUSH1 0x0 DUP1 REVERT JUMPDEST POP PUSH2 0x6AA DUP1 PUSH2 0x20 PUSH1 0x0 CODECOPY PUSH1 0x0 RETURN INVALID PUSH1 0x80 PUSH1 0x40 MSTORE CALLVALUE DUP1 ISZERO PUSH2 0x10 JUMPI PUSH1 0x0 DUP1 REVERT JUMPDEST POP PUSH1 0x4 CALLDATASIZE LT PUSH2 0x62 JUMPI PUSH1 0x0 CALLDATALOAD PUSH1 0xE0 SHR DUP1 PUSH4 0x2E64CEC1 EQ PUSH2 0x67 JUMPI DUP1 PUSH4 0x471F7CDF EQ PUSH2 0x85 JUMPI DUP1 PUSH4 0x4F2BE91F EQ PUSH2 0xA3 JUMPI DUP1 PUSH4 0x6057361D EQ PUSH2 0xC1 JUMPI DUP1 PUSH4 0x9E7A13AD EQ PUSH2 0xDD JUMPI DUP1 PUSH4 0xC7C78F35 EQ PUSH2 0x10E JUMPI JUMPDEST PUSH1 0x0 DUP1 REVERT JUMPDEST PUSH2 0x6F PUSH2 0x12A JUMP JUMPDEST PUSH1 0x40 MLOAD PUSH2 0x7C SWAP2 SWAP1 PUSH2 0x331 JUMP JUMPDEST PUSH1 0x40 MLOAD DUP1 SWAP2 SUB SWAP1 RETURN JUMPDEST PUSH2 0x8D PUSH2 0x133 JUMP JUMPDEST PUSH1 0x40 MLOAD PUSH2 0x9A SWAP2 SWAP1 PUSH2 0x331 JUMP JUMPDEST PUSH1 0x40 MLOAD DUP1 SWAP2 SUB SWAP1 RETURN JUMPDEST PUSH2 0xAB PUSH2 0x139 JUMP JUMPDEST PUSH1 0x40 MLOAD PUSH2 0xB8 SWAP2 SWAP1 PUSH2 0x331 JUMP JUMPDEST PUSH1 0x40 MLOAD DUP1 SWAP2 SUB SWAP1 RETURN JUMPDEST PUSH2 0xDB PUSH1 0x4 DUP1 CALLDATASIZE SUB DUP2 ADD SWAP1 PUSH2 0xD6 SWAP2 SWAP1 PUSH2 0x38C JUMP JUMPDEST PUSH2 0x142 JUMP JUMPDEST STOP JUMPDEST PUSH2 0xF7 PUSH1 0x4 DUP1 CALLDATASIZE SUB DUP2 ADD SWAP1 PUSH2 0xF2 SWAP2 SWAP1 PUSH2 0x38C JUMP JUMPDEST PUSH2 0x14C JUMP JUMPDEST PUSH1 0x40 MLOAD PUSH2 0x105 SWAP3 SWAP2 SWAP1 PUSH2 0x452 JUMP JUMPDEST PUSH1 0x40 MLOAD DUP1 SWAP2 SUB SWAP1 RETURN JUMPDEST PUSH2 0x128 PUSH1 0x4 DUP1 CALLDATASIZE SUB DUP2 ADD SWAP1 PUSH2 0x123 SWAP2 SWAP1 PUSH2 0x5B7 JUMP JUMPDEST PUSH2 0x208 JUMP JUMPDEST STOP JUMPDEST PUSH1 0x0 DUP1 SLOAD SWAP1 POP SWAP1 JUMP JUMPDEST PUSH1 0x0 SLOAD DUP2 JUMP JUMPDEST PUSH1 0x0 PUSH1 0x2 SWAP1 POP SWAP1 JUMP JUMPDEST DUP1 PUSH1 0x0 DUP2 SWAP1 SSTORE POP POP JUMP JUMPDEST PUSH1 0x1 DUP2 DUP2 SLOAD DUP2 LT PUSH2 0x15C JUMPI PUSH1 0x0 DUP1 REVERT JUMPDEST SWAP1 PUSH1 0x0 MSTORE PUSH1 0x20 PUSH1 0x0 KECCAK256 SWAP1 PUSH1 0x2 MUL ADD PUSH1 0x0 SWAP2 POP SWAP1 POP DUP1 PUSH1 0x0 ADD SLOAD SWAP1 DUP1 PUSH1 0x1 ADD DUP1 SLOAD PUSH2 0x185 SWAP1 PUSH2 0x642 JUMP JUMPDEST DUP1 PUSH1 0x1F ADD PUSH1 0x20 DUP1 SWAP2 DIV MUL PUSH1 0x20 ADD PUSH1 0x40 MLOAD SWAP1 DUP2 ADD PUSH1 0x40 MSTORE DUP1 SWAP3 SWAP2 SWAP1 DUP2 DUP2 MSTORE PUSH1 0x20 ADD DUP3 DUP1 SLOAD PUSH2 0x1B1 SWAP1 PUSH2 0x642 JUMP JUMPDEST DUP1 ISZERO PUSH2 0x1FE JUMPI DUP1 PUSH1 0x1F LT PUSH2 0x1D3 JUMPI PUSH2 0x100 DUP1 DUP4 SLOAD DIV MUL DUP4 MSTORE SWAP2 PUSH1 0x20 ADD SWAP2 PUSH2 0x1FE JUMP JUMPDEST DUP3 ADD SWAP2 SWAP1 PUSH1 0x0 MSTORE PUSH1 0x20 PUSH1 0x0 KECCAK256 SWAP1 JUMPDEST DUP2 SLOAD DUP2 MSTORE SWAP1 PUSH1 0x1 ADD SWAP1 PUSH1 0x20 ADD DUP1 DUP4 GT PUSH2 0x1E1 JUMPI DUP3 SWAP1 SUB PUSH1 0x1F AND DUP3 ADD SWAP2 JUMPDEST POP POP POP POP POP SWAP1 POP DUP3 JUMP JUMPDEST PUSH1 0x1 PUSH1 0x40 MLOAD DUP1 PUSH1 0x40 ADD PUSH1 0x40 MSTORE DUP1 DUP5 DUP2 MSTORE PUSH1 0x20 ADD DUP4 DUP2 MSTORE POP SWAP1 DUP1 PUSH1 0x1 DUP2 SLOAD ADD DUP1 DUP3 SSTORE DUP1 SWAP2 POP POP PUSH1 0x1 SWAP1 SUB SWAP1 PUSH1 0x0 MSTORE PUSH1 0x20 PUSH1 0x0 KECCAK256 SWAP1 PUSH1 0x2 MUL ADD PUSH1 0x0 SWAP1 SWAP2 SWAP1 SWAP2 SWAP1 SWAP2 POP PUSH1 0x0 DUP3 ADD MLOAD DUP2 PUSH1 0x0 ADD SSTORE PUSH1 0x20 DUP3 ADD MLOAD DUP2 PUSH1 0x1 ADD SWAP1 DUP1 MLOAD SWAP1 PUSH1 0x20 ADD SWAP1 PUSH2 0x26E SWAP3 SWAP2 SWAP1 PUSH2 0x275 JUMP JUMPDEST POP POP POP POP POP JUMP JUMPDEST DUP3 DUP1 SLOAD PUSH2 0x281 SWAP1 PUSH2 0x642 JUMP JUMPDEST SWAP1 PUSH1 0x0 MSTORE PUSH1 0x20 PUSH1 0x0 KECCAK256 SWAP1 PUSH1 0x1F ADD PUSH1 0x20 SWAP1 DIV DUP2 ADD SWAP3 DUP3 PUSH2 0x2A3 JUMPI PUSH1 0x0 DUP6 SSTORE PUSH2 0x2EA JUMP JUMPDEST DUP3 PUSH1 0x1F LT PUSH2 0x2BC JUMPI DUP1 MLOAD PUSH1 0xFF NOT AND DUP4 DUP1 ADD OR DUP6 SSTORE PUSH2 0x2EA JUMP JUMPDEST DUP3 DUP1 ADD PUSH1 0x1 ADD DUP6 SSTORE DUP3 ISZERO PUSH2 0x2EA JUMPI SWAP2 DUP3 ADD JUMPDEST DUP3 DUP2 GT ISZERO PUSH2 0x2E9 JUMPI DUP3 MLOAD DUP3 SSTORE SWAP2 PUSH1 0x20 ADD SWAP2 SWAP1 PUSH1 0x1 ADD SWAP1 PUSH2 0x2CE JUMP JUMPDEST JUMPDEST POP SWAP1 POP PUSH2 0x2F7 SWAP2 SWAP1 PUSH2 0x2FB JUMP JUMPDEST POP SWAP1 JUMP JUMPDEST JUMPDEST DUP1 DUP3 GT ISZERO PUSH2 0x314 JUMPI PUSH1 0x0 DUP2 PUSH1 0x0 SWAP1 SSTORE POP PUSH1 0x1 ADD PUSH2 0x2FC JUMP JUMPDEST POP SWAP1 JUMP JUMPDEST PUSH1 0x0 DUP2 SWAP1 POP SWAP2 SWAP1 POP JUMP JUMPDEST PUSH2 0x32B DUP2 PUSH2 0x318 JUMP JUMPDEST DUP3 MSTORE POP POP JUMP JUMPDEST PUSH1 0x0 PUSH1 0x20 DUP3 ADD SWAP1 POP PUSH2 0x346 PUSH1 0x0 DUP4 ADD DUP5 PUSH2 0x322 JUMP JUMPDEST SWAP3 SWAP2 POP POP JUMP JUMPDEST PUSH1 0x0 PUSH1 0x40 MLOAD SWAP1 POP SWAP1 JUMP JUMPDEST PUSH1 0x0 DUP1 REVERT JUMPDEST PUSH1 0x0 DUP1 REVERT JUMPDEST PUSH2 0x369 DUP2 PUSH2 0x318 JUMP JUMPDEST DUP2 EQ PUSH2 0x374 JUMPI PUSH1 0x0 DUP1 REVERT JUMPDEST POP JUMP JUMPDEST PUSH1 0x0 DUP2 CALLDATALOAD SWAP1 POP PUSH2 0x386 DUP2 PUSH2 0x360 JUMP JUMPDEST SWAP3 SWAP2 POP POP JUMP JUMPDEST PUSH1 0x0 PUSH1 0x20 DUP3 DUP5 SUB SLT ISZERO PUSH2 0x3A2 JUMPI PUSH2 0x3A1 PUSH2 0x356 JUMP JUMPDEST JUMPDEST PUSH1 0x0 PUSH2 0x3B0 DUP5 DUP3 DUP6 ADD PUSH2 0x377 JUMP JUMPDEST SWAP2 POP POP SWAP3 SWAP2 POP POP JUMP JUMPDEST PUSH1 0x0 DUP2 MLOAD SWAP1 POP SWAP2 SWAP1 POP JUMP JUMPDEST PUSH1 0x0 DUP3 DUP3 MSTORE PUSH1 0x20 DUP3 ADD SWAP1 POP SWAP3 SWAP2 POP POP JUMP JUMPDEST PUSH1 0x0 JUMPDEST DUP4 DUP2 LT ISZERO PUSH2 0x3F3 JUMPI DUP1 DUP3 ADD MLOAD DUP2 DUP5 ADD MSTORE PUSH1 0x20 DUP2 ADD SWAP1 POP PUSH2 0x3D8 JUMP JUMPDEST DUP4 DUP2 GT ISZERO PUSH2 0x402 JUMPI PUSH1 0x0 DUP5 DUP5 ADD MSTORE JUMPDEST POP POP POP POP JUMP JUMPDEST PUSH1 0x0 PUSH1 0x1F NOT PUSH1 0x1F DUP4 ADD AND SWAP1 POP SWAP2 SWAP1 POP JUMP JUMPDEST PUSH1 0x0 PUSH2 0x424 DUP3 PUSH2 0x3B9 JUMP JUMPDEST PUSH2 0x42E DUP2 DUP6 PUSH2 0x3C4 JUMP JUMPDEST SWAP4 POP PUSH2 0x43E DUP2 DUP6 PUSH1 0x20 DUP7 ADD PUSH2 0x3D5 JUMP JUMPDEST PUSH2 0x447 DUP2 PUSH2 0x408 JUMP JUMPDEST DUP5 ADD SWAP2 POP POP SWAP3 SWAP2 POP POP JUMP JUMPDEST PUSH1 0x0 PUSH1 0x40 DUP3 ADD SWAP1 POP PUSH2 0x467 PUSH1 0x0 DUP4 ADD DUP6 PUSH2 0x322 JUMP JUMPDEST DUP2 DUP2 SUB PUSH1 0x20 DUP4 ADD MSTORE PUSH2 0x479 DUP2 DUP5 PUSH2 0x419 JUMP JUMPDEST SWAP1 POP SWAP4 SWAP3 POP POP POP JUMP JUMPDEST PUSH1 0x0 DUP1 REVERT JUMPDEST PUSH1 0x0 DUP1 REVERT JUMPDEST PUSH32 0x4E487B7100000000000000000000000000000000000000000000000000000000 PUSH1 0x0 MSTORE PUSH1 0x41 PUSH1 0x4 MSTORE PUSH1 0x24 PUSH1 0x0 REVERT JUMPDEST PUSH2 0x4C4 DUP3 PUSH2 0x408 JUMP JUMPDEST DUP2 ADD DUP2 DUP2 LT PUSH8 0xFFFFFFFFFFFFFFFF DUP3 GT OR ISZERO PUSH2 0x4E3 JUMPI PUSH2 0x4E2 PUSH2 0x48C JUMP JUMPDEST JUMPDEST DUP1 PUSH1 0x40 MSTORE POP POP POP JUMP JUMPDEST PUSH1 0x0 PUSH2 0x4F6 PUSH2 0x34C JUMP JUMPDEST SWAP1 POP PUSH2 0x502 DUP3 DUP3 PUSH2 0x4BB JUMP JUMPDEST SWAP2 SWAP1 POP JUMP JUMPDEST PUSH1 0x0 PUSH8 0xFFFFFFFFFFFFFFFF DUP3 GT ISZERO PUSH2 0x522 JUMPI PUSH2 0x521 PUSH2 0x48C JUMP JUMPDEST JUMPDEST PUSH2 0x52B DUP3 PUSH2 0x408 JUMP JUMPDEST SWAP1 POP PUSH1 0x20 DUP2 ADD SWAP1 POP SWAP2 SWAP1 POP JUMP JUMPDEST DUP3 DUP2 DUP4 CALLDATACOPY PUSH1 0x0 DUP4 DUP4 ADD MSTORE POP POP POP JUMP JUMPDEST PUSH1 0x0 PUSH2 0x55A PUSH2 0x555 DUP5 PUSH2 0x507 JUMP JUMPDEST PUSH2 0x4EC JUMP JUMPDEST SWAP1 POP DUP3 DUP2 MSTORE PUSH1 0x20 DUP2 ADD DUP5 DUP5 DUP5 ADD GT ISZERO PUSH2 0x576 JUMPI PUSH2 0x575 PUSH2 0x487 JUMP JUMPDEST JUMPDEST PUSH2 0x581 DUP5 DUP3 DUP6 PUSH2 0x538 JUMP JUMPDEST POP SWAP4 SWAP3 POP POP POP JUMP JUMPDEST PUSH1 0x0 DUP3 PUSH1 0x1F DUP4 ADD SLT PUSH2 0x59E JUMPI PUSH2 0x59D PUSH2 0x482 JUMP JUMPDEST JUMPDEST DUP2 CALLDATALOAD PUSH2 0x5AE DUP5 DUP3 PUSH1 0x20 DUP7 ADD PUSH2 0x547 JUMP JUMPDEST SWAP2 POP POP SWAP3 SWAP2 POP POP JUMP JUMPDEST PUSH1 0x0 DUP1 PUSH1 0x40 DUP4 DUP6 SUB SLT ISZERO PUSH2 0x5CE JUMPI PUSH2 0x5CD PUSH2 0x356 JUMP JUMPDEST JUMPDEST PUSH1 0x0 PUSH2 0x5DC DUP6 DUP3 DUP7 ADD PUSH2 0x377 JUMP JUMPDEST SWAP3 POP POP PUSH1 0x20 DUP4 ADD CALLDATALOAD PUSH8 0xFFFFFFFFFFFFFFFF DUP2 GT ISZERO PUSH2 0x5FD JUMPI PUSH2 0x5FC PUSH2 0x35B JUMP JUMPDEST JUMPDEST PUSH2 0x609 DUP6 DUP3 DUP7 ADD PUSH2 0x589 JUMP JUMPDEST SWAP2 POP POP SWAP3 POP SWAP3 SWAP1 POP JUMP JUMPDEST PUSH32 0x4E487B7100000000000000000000000000000000000000000000000000000000 PUSH1 0x0 MSTORE PUSH1 0x22 PUSH1 0x4 MSTORE PUSH1 0x24 PUSH1 0x0 REVERT JUMPDEST PUSH1 0x0 PUSH1 0x2 DUP3 DIV SWAP1 POP PUSH1 0x1 DUP3 AND DUP1 PUSH2 0x65A JUMPI PUSH1 0x7F DUP3 AND SWAP2 POP JUMPDEST PUSH1 0x20 DUP3 LT DUP2 EQ ISZERO PUSH2 0x66E JUMPI PUSH2 0x66D PUSH2 0x613 JUMP JUMPDEST JUMPDEST POP SWAP2 SWAP1 POP JUMP INVALID LOG2 PUSH5 0x6970667358 0x22 SLT KECCAK256 SWAP11 0x2D 0x21 0x28 0x5F MSTORE JUMP 0xDA 0xEF DUP11 0x4C PUSH12 0x8B8C2C07309168D31F3892EA DUP1 0xBD 0x4F 0xBD 0xAF 0xD8 PUSH29 0xC464736F6C634300080800330000000000000000000000000000000000 "
				},
				"gasEstimates": {
					"creation": {
						"codeDepositCost": "341200",
						"executionCost": "380",
						"totalCost": "341580"
					},
					"external": {
						"add()": "359",
						"favoriteNumber()": "2429",
						"insertIntoArr(uint256,string)": "infinite",
						"people(uint256)": "infinite",
						"retrieve()": "2415",
						"store(uint256)": "22564"
					}
				},
				"methodIdentifiers": {
					"add()": "4f2be91f",
					"favoriteNumber()": "471f7cdf",
					"insertIntoArr(uint256,string)": "c7c78f35",
					"people(uint256)": "9e7a13ad",
					"retrieve()": "2e64cec1",
					"store(uint256)": "6057361d"
				}
			},
			"storageLayout": {
				"storage": [
					{
						"astId": 3,
						"contract": "contracts/5_SImpleStorage.sol:SimpleStorage",
						"label": "favoriteNumber",
						"offset": 0,
						"slot": "0",
						"type": "t_uint256"
					},
					{
						"astId": 12,
						"contract": "contracts/5_SImpleStorage.sol:SimpleStorage",
						"label": "people",
						"offset": 0,
						"slot": "1",
						"type": "t_array(t_struct(People)8_storage)dyn_storage"
					}
				],
				"types": {
					"t_array(t_struct(People)8_storage)dyn_storage": {
						"base": "t_struct(People)8_storage",
						"encoding": "dynamic_array",
						"label": "struct SimpleStorage.People[]",
						"numberOfBytes": "32"
					},
					"t_string_storage": {
						"encoding": "bytes",
						"label": "string",
						"numberOfBytes": "32"
					},
					"t_struct(People)8_storage": {
						"encoding": "inplace",
						"label": "struct SimpleStorage.People",
						"members": [
							{
								"astId": 5,
								"contract": "contracts/5_SImpleStorage.sol:SimpleStorage",
								"label": "favoriteNumber",
								"offset": 0,
								"slot": "0",
								"type": "t_uint256"
							},
							{
								"astId": 7,
								"contract": "contracts/5_SImpleStorage.sol:SimpleStorage",
								"label": "name",
								"offset": 0,
								"slot": "1",
								"type": "t_string_storage"
							}
						],
						"numberOfBytes": "64"
					},
					"t_uint256": {
						"encoding": "inplace",
						"label": "uint256",
						"numberOfBytes": "32"
					}
				}
			},
			"userdoc": {
				"kind": "user",
				"methods": {},
				"version": 1
			}
		}
	}
}