{
	"data": {
		"bytecode": {
			"linkReferences": {},
			"object": "608060405260b5806100126000396000f3fe6080604052348015600f57600080fd5b506004361060285760003560e01c8063c71daccb14602d575b600080fd5b60336047565b604051603e9190605c565b60405180910390f35b600047905090565b6056816075565b82525050565b6000602082019050606f6000830184604f565b92915050565b600081905091905056fea2646970667358221220562b6ee93f9ad42071a75abee4770de80f5b101656925f2339e64f8240d81fe464736f6c63430008070033",
			"opcodes": "PUSH1 0x80 PUSH1 0x40 MSTORE PUSH1 0xB5 DUP1 PUSH2 0x12 PUSH1 0x0 CODECOPY PUSH1 0x0 RETURN INVALID PUSH1 0x80 PUSH1 0x40 MSTORE CALLVALUE DUP1 ISZERO PUSH1 0xF JUMPI PUSH1 0x0 DUP1 REVERT JUMPDEST POP PUSH1 0x4 CALLDATASIZE LT PUSH1 0x28 JUMPI PUSH1 0x0 CALLDATALOAD PUSH1 0xE0 SHR DUP1 PUSH4 0xC71DACCB EQ PUSH1 0x2D JUMPI JUMPDEST PUSH1 0x0 DUP1 REVERT JUMPDEST PUSH1 0x33 PUSH1 0x47 JUMP JUMPDEST PUSH1 0x40 MLOAD PUSH1 0x3E SWAP2 SWAP1 PUSH1 0x5C JUMP JUMPDEST PUSH1 0x40 MLOAD DUP1 SWAP2 SUB SWAP1 RETURN JUMPDEST PUSH1 0x0 SELFBALANCE SWAP1 POP SWAP1 JUMP JUMPDEST PUSH1 0x56 DUP2 PUSH1 0x75 JUMP JUMPDEST DUP3 MSTORE POP POP JUMP JUMPDEST PUSH1 0x0 PUSH1 0x20 DUP3 ADD SWAP1 POP PUSH1 0x6F PUSH1 0x0 DUP4 ADD DUP5 PUSH1 0x4F JUMP JUMPDEST SWAP3 SWAP2 POP POP JUMP JUMPDEST PUSH1 0x0 DUP2 SWAP1 POP SWAP2 SWAP1 POP JUMP INVALID LOG2 PUSH5 0x6970667358 0x22 SLT KECCAK256 JUMP 0x2B PUSH15 0xE93F9AD42071A75ABEE4770DE80F5B LT AND JUMP SWAP3 0x5F 0x23 CODECOPY 0xE6 0x4F DUP3 BLOCKHASH 0xD8 0x1F 0xE4 PUSH5 0x736F6C6343 STOP ADDMOD SMOD STOP CALLER "
		},
		"gasEstimates": {
			"creation": {
				"codeDepositCost": "36200",
				"executionCost": "63",
				"totalCost": "36263"
			},
			"external": {
				"checkBalance()": "317"
			}
		},
		"methodIdentifiers": {
			"checkBalance()": "c71daccb"
		}
	},
	"abi": [
		{
			"inputs": [],
			"stateMutability": "payable",
			"type": "constructor"
		},
		{
			"inputs": [],
			"name": "checkBalance",
			"outputs": [
				{
					"internalType": "uint256",
					"name": "",
					"type": "uint256"
				}
			],
			"stateMutability": "view",
			"type": "function"
		}
	]
}